{
    "contractName": "Staking",
    "abi": [
        {
            "inputs": [],
            "stateMutability": "nonpayable",
            "type": "constructor"
        },
        {
            "anonymous": false,
            "inputs": [
                {
                    "indexed": true,
                    "internalType": "address",
                    "name": "previousOwner",
                    "type": "address"
                },
                {
                    "indexed": true,
                    "internalType": "address",
                    "name": "newOwner",
                    "type": "address"
                }
            ],
            "name": "OwnershipTransferred",
            "type": "event"
        },
        {
            "anonymous": false,
            "inputs": [
                {
                    "indexed": true,
                    "internalType": "bytes32",
                    "name": "role",
                    "type": "bytes32"
                },
                {
                    "indexed": true,
                    "internalType": "bytes32",
                    "name": "previousAdminRole",
                    "type": "bytes32"
                },
                {
                    "indexed": true,
                    "internalType": "bytes32",
                    "name": "newAdminRole",
                    "type": "bytes32"
                }
            ],
            "name": "RoleAdminChanged",
            "type": "event"
        },
        {
            "anonymous": false,
            "inputs": [
                {
                    "indexed": true,
                    "internalType": "bytes32",
                    "name": "role",
                    "type": "bytes32"
                },
                {
                    "indexed": true,
                    "internalType": "address",
                    "name": "account",
                    "type": "address"
                },
                {
                    "indexed": true,
                    "internalType": "address",
                    "name": "sender",
                    "type": "address"
                }
            ],
            "name": "RoleGranted",
            "type": "event"
        },
        {
            "anonymous": false,
            "inputs": [
                {
                    "indexed": true,
                    "internalType": "bytes32",
                    "name": "role",
                    "type": "bytes32"
                },
                {
                    "indexed": true,
                    "internalType": "address",
                    "name": "account",
                    "type": "address"
                },
                {
                    "indexed": true,
                    "internalType": "address",
                    "name": "sender",
                    "type": "address"
                }
            ],
            "name": "RoleRevoked",
            "type": "event"
        },
        {
            "inputs": [],
            "name": "DEFAULT_ADMIN_ROLE",
            "outputs": [
                {
                    "internalType": "bytes32",
                    "name": "",
                    "type": "bytes32"
                }
            ],
            "stateMutability": "view",
            "type": "function"
        },
        {
            "inputs": [],
            "name": "_DISTRIBUTOR",
            "outputs": [
                {
                    "internalType": "bytes32",
                    "name": "",
                    "type": "bytes32"
                }
            ],
            "stateMutability": "view",
            "type": "function"
        },
        {
            "inputs": [],
            "name": "_STAKING",
            "outputs": [
                {
                    "internalType": "bytes32",
                    "name": "",
                    "type": "bytes32"
                }
            ],
            "stateMutability": "view",
            "type": "function"
        },
        {
            "inputs": [
                {
                    "internalType": "address",
                    "name": "_stakeholder",
                    "type": "address"
                }
            ],
            "name": "calculateReward",
            "outputs": [
                {
                    "internalType": "uint256",
                    "name": "",
                    "type": "uint256"
                }
            ],
            "stateMutability": "view",
            "type": "function"
        },
        {
            "inputs": [
                {
                    "internalType": "uint256",
                    "name": "_stake",
                    "type": "uint256"
                }
            ],
            "name": "createStake",
            "outputs": [],
            "stateMutability": "nonpayable",
            "type": "function"
        },
        {
            "inputs": [],
            "name": "distributeRewards",
            "outputs": [],
            "stateMutability": "nonpayable",
            "type": "function"
        },
        {
            "inputs": [
                {
                    "internalType": "bytes32",
                    "name": "role",
                    "type": "bytes32"
                }
            ],
            "name": "getRoleAdmin",
            "outputs": [
                {
                    "internalType": "bytes32",
                    "name": "",
                    "type": "bytes32"
                }
            ],
            "stateMutability": "view",
            "type": "function"
        },
        {
            "inputs": [
                {
                    "internalType": "bytes32",
                    "name": "role",
                    "type": "bytes32"
                },
                {
                    "internalType": "uint256",
                    "name": "index",
                    "type": "uint256"
                }
            ],
            "name": "getRoleMember",
            "outputs": [
                {
                    "internalType": "address",
                    "name": "",
                    "type": "address"
                }
            ],
            "stateMutability": "view",
            "type": "function"
        },
        {
            "inputs": [
                {
                    "internalType": "bytes32",
                    "name": "role",
                    "type": "bytes32"
                }
            ],
            "name": "getRoleMemberCount",
            "outputs": [
                {
                    "internalType": "uint256",
                    "name": "",
                    "type": "uint256"
                }
            ],
            "stateMutability": "view",
            "type": "function"
        },
        {
            "inputs": [
                {
                    "internalType": "bytes32",
                    "name": "role",
                    "type": "bytes32"
                },
                {
                    "internalType": "address",
                    "name": "account",
                    "type": "address"
                }
            ],
            "name": "grantRole",
            "outputs": [],
            "stateMutability": "nonpayable",
            "type": "function"
        },
        {
            "inputs": [
                {
                    "internalType": "bytes32",
                    "name": "role",
                    "type": "bytes32"
                },
                {
                    "internalType": "address",
                    "name": "account",
                    "type": "address"
                }
            ],
            "name": "hasRole",
            "outputs": [
                {
                    "internalType": "bool",
                    "name": "",
                    "type": "bool"
                }
            ],
            "stateMutability": "view",
            "type": "function"
        },
        {
            "inputs": [
                {
                    "internalType": "address",
                    "name": "_address",
                    "type": "address"
                }
            ],
            "name": "isStakeholder",
            "outputs": [
                {
                    "internalType": "bool",
                    "name": "",
                    "type": "bool"
                },
                {
                    "internalType": "uint256",
                    "name": "",
                    "type": "uint256"
                }
            ],
            "stateMutability": "view",
            "type": "function"
        },
        {
            "inputs": [],
            "name": "owner",
            "outputs": [
                {
                    "internalType": "address",
                    "name": "",
                    "type": "address"
                }
            ],
            "stateMutability": "view",
            "type": "function"
        },
        {
            "inputs": [],
            "name": "paused",
            "outputs": [
                {
                    "internalType": "bool",
                    "name": "",
                    "type": "bool"
                }
            ],
            "stateMutability": "view",
            "type": "function"
        },
        {
            "inputs": [
                {
                    "internalType": "uint256",
                    "name": "_stake",
                    "type": "uint256"
                }
            ],
            "name": "removeStake",
            "outputs": [],
            "stateMutability": "nonpayable",
            "type": "function"
        },
        {
            "inputs": [],
            "name": "renounceOwnership",
            "outputs": [],
            "stateMutability": "nonpayable",
            "type": "function"
        },
        {
            "inputs": [
                {
                    "internalType": "bytes32",
                    "name": "role",
                    "type": "bytes32"
                },
                {
                    "internalType": "address",
                    "name": "account",
                    "type": "address"
                }
            ],
            "name": "renounceRole",
            "outputs": [],
            "stateMutability": "nonpayable",
            "type": "function"
        },
        {
            "inputs": [
                {
                    "internalType": "bytes32",
                    "name": "role",
                    "type": "bytes32"
                },
                {
                    "internalType": "address",
                    "name": "account",
                    "type": "address"
                }
            ],
            "name": "revokeRole",
            "outputs": [],
            "stateMutability": "nonpayable",
            "type": "function"
        },
        {
            "inputs": [
                {
                    "internalType": "address",
                    "name": "_stakeholder",
                    "type": "address"
                }
            ],
            "name": "rewardOf",
            "outputs": [
                {
                    "internalType": "uint256",
                    "name": "",
                    "type": "uint256"
                }
            ],
            "stateMutability": "view",
            "type": "function"
        },
        {
            "inputs": [
                {
                    "internalType": "address",
                    "name": "_token",
                    "type": "address"
                }
            ],
            "name": "setAddress",
            "outputs": [],
            "stateMutability": "nonpayable",
            "type": "function"
        },
        {
            "inputs": [
                {
                    "internalType": "bool",
                    "name": "_paused",
                    "type": "bool"
                }
            ],
            "name": "setPaused",
            "outputs": [],
            "stateMutability": "nonpayable",
            "type": "function"
        },
        {
            "inputs": [
                {
                    "internalType": "uint256",
                    "name": "_stakeCalc",
                    "type": "uint256"
                }
            ],
            "name": "setStakeCalc",
            "outputs": [],
            "stateMutability": "nonpayable",
            "type": "function"
        },
        {
            "inputs": [
                {
                    "internalType": "uint256",
                    "name": "_stakeCap",
                    "type": "uint256"
                }
            ],
            "name": "setStakeCap",
            "outputs": [],
            "stateMutability": "nonpayable",
            "type": "function"
        },
        {
            "inputs": [],
            "name": "stakeCalc",
            "outputs": [
                {
                    "internalType": "uint256",
                    "name": "",
                    "type": "uint256"
                }
            ],
            "stateMutability": "view",
            "type": "function"
        },
        {
            "inputs": [],
            "name": "stakeCap",
            "outputs": [
                {
                    "internalType": "uint256",
                    "name": "",
                    "type": "uint256"
                }
            ],
            "stateMutability": "view",
            "type": "function"
        },
        {
            "inputs": [
                {
                    "internalType": "address",
                    "name": "_stakeholder",
                    "type": "address"
                }
            ],
            "name": "stakeOf",
            "outputs": [
                {
                    "internalType": "uint256",
                    "name": "",
                    "type": "uint256"
                }
            ],
            "stateMutability": "view",
            "type": "function"
        },
        {
            "inputs": [
                {
                    "internalType": "bool",
                    "name": "_stakingOff",
                    "type": "bool"
                }
            ],
            "name": "stakeOff",
            "outputs": [],
            "stateMutability": "nonpayable",
            "type": "function"
        },
        {
            "inputs": [],
            "name": "stakingOff",
            "outputs": [
                {
                    "internalType": "bool",
                    "name": "",
                    "type": "bool"
                }
            ],
            "stateMutability": "view",
            "type": "function"
        },
        {
            "inputs": [],
            "name": "token",
            "outputs": [
                {
                    "internalType": "address",
                    "name": "",
                    "type": "address"
                }
            ],
            "stateMutability": "view",
            "type": "function"
        },
        {
            "inputs": [],
            "name": "totalRewardsPaid",
            "outputs": [
                {
                    "internalType": "uint256",
                    "name": "",
                    "type": "uint256"
                }
            ],
            "stateMutability": "view",
            "type": "function"
        },
        {
            "inputs": [],
            "name": "totalStakes",
            "outputs": [
                {
                    "internalType": "uint256",
                    "name": "",
                    "type": "uint256"
                }
            ],
            "stateMutability": "view",
            "type": "function"
        },
        {
            "inputs": [
                {
                    "internalType": "address",
                    "name": "newOwner",
                    "type": "address"
                }
            ],
            "name": "transferOwnership",
            "outputs": [],
            "stateMutability": "nonpayable",
            "type": "function"
        }
    ],
    "bytecode": "60806040523480156200001157600080fd5b5060006200001e6200009c565b600080546001600160a01b0319166001600160a01b0383169081178255604051929350917f8be0079c531659141344cd1fd0a4f28419497f9722a3daafe3b4186f6b6457e0908290a3506005805460ff191660011790556103e860035569065a4da25d3016c0000060045562000096600033620000a0565b620001b2565b3390565b620000ac8282620000b0565b5050565b6000828152600160209081526040909120620000d7918390620010ac6200012b821b17901c565b15620000ac57620000e76200009c565b6001600160a01b0316816001600160a01b0316837f2f8788117e7eff1d82e926ec794901d17c78024a50270940304540a733656f0d60405160405180910390a45050565b600062000142836001600160a01b0384166200014b565b90505b92915050565b60006200015983836200019a565b620001915750815460018181018455600084815260208082209093018490558454848252828601909352604090209190915562000145565b50600062000145565b60009081526001919091016020526040902054151590565b61187180620001c26000396000f3fe608060405234801561001057600080fd5b50600436106101f05760003560e01c80639010d07c1161010f578063ca15c873116100a2578063ef037b9011610071578063ef037b90146104d3578063f2fde38b14610514578063f3bccba31461053a578063fc0c546a14610557576101f0565b8063ca15c8731461043e578063d547741f1461045b578063d82e396214610487578063e30081a0146104ad576101f0565b8063a217fddf116100de578063a217fddf1461041e578063ad67ddcb14610426578063ba28fd2e1461042e578063bf9befb114610436576101f0565b80639010d07c1461039357806391d14854146103b6578063939624ab146103e257806397e459f9146103ff576101f0565b80635c894fe31161018757806370805435116101565780637080543514610342578063715018a61461035f57806374958e35146103675780638da5cb5b1461036f576101f0565b80635c894fe31461030e5780635c975abb1461031657806368f34eb5146103325780636f4a2cd01461033a576101f0565b8063248a9ca3116101c3578063248a9ca3146102735780632f2ff15d1461029057806336568abe146102bc57806342623360146102e8576101f0565b80630a68a0cc146101f557806316c38b3c1461020f5780631bf6ddae146102305780631d62ebd91461024d575b600080fd5b6101fd61055f565b60408051918252519081900360200190f35b61022e6004803603602081101561022557600080fd5b50351515610583565b005b61022e6004803603602081101561024657600080fd5b50356105f5565b6101fd6004803603602081101561026357600080fd5b50356001600160a01b0316610786565b6101fd6004803603602081101561028957600080fd5b50356107a1565b61022e600480360360408110156102a657600080fd5b50803590602001356001600160a01b03166107b6565b61022e600480360360408110156102d257600080fd5b50803590602001356001600160a01b0316610822565b6101fd600480360360208110156102fe57600080fd5b50356001600160a01b0316610883565b6101fd61089e565b61031e6108b0565b604080519115158252519081900360200190f35b6101fd6108be565b61022e6108c4565b61022e6004803603602081101561035857600080fd5b5035610a5e565b61022e610ad6565b6101fd610b78565b610377610bd7565b604080516001600160a01b039092168252519081900360200190f35b610377600480360360408110156103a957600080fd5b5080359060200135610be6565b61031e600480360360408110156103cc57600080fd5b50803590602001356001600160a01b0316610c07565b61022e600480360360208110156103f857600080fd5b5035610c1f565b61022e6004803603602081101561041557600080fd5b50351515610d44565b6101fd610d78565b61031e610d7d565b6101fd610d86565b6101fd610d8c565b6101fd6004803603602081101561045457600080fd5b5035610db9565b61022e6004803603604081101561047157600080fd5b50803590602001356001600160a01b0316610dd0565b6101fd6004803603602081101561049d57600080fd5b50356001600160a01b0316610e29565b61022e600480360360208110156104c357600080fd5b50356001600160a01b0316610e56565b6104f9600480360360208110156104e957600080fd5b50356001600160a01b0316610ed0565b60408051921515835260208301919091528051918290030190f35b61022e6004803603602081101561052a57600080fd5b50356001600160a01b0316610f2d565b61022e6004803603602081101561055057600080fd5b5035611025565b61037761109d565b7fd4e0807919e2b1ad2d101a8010f38574b7a50a04293f99385e3bbe6dacd4576181565b61058b6110c1565b6000546001600160a01b039081169116146105db576040805162461bcd60e51b815260206004820181905260248201526000805160206117ed833981519152604482015290519081900360640190fd5b600580549115156101000261ff0019909216919091179055565b600554610100900460ff1615610647576040805162461bcd60e51b815260206004820152601260248201527110dbdb9d1c9858dd081a5cc814185d5cd95960721b604482015290519081900360640190fd5b60055460ff161561068d576040805162461bcd60e51b815260206004820152601f6024820152600080516020611776833981519152604482015290519081900360640190fd5b336000908152600760205260409020546106aa576106aa336110c5565b336000908152600760205260409020546106c490826111c1565b33600090815260076020526040902081905560045410156107165760405162461bcd60e51b81526004018080602001828103825260278152602001806117966027913960400191505060405180910390fd5b6002546040805163079cc67960e41b81523360048201526024810184905290516001600160a01b039092169182916379cc679091604480830192600092919082900301818387803b15801561076a57600080fd5b505af115801561077e573d6000803e3d6000fd5b505050505050565b6001600160a01b031660009081526008602052604090205490565b60009081526001602052604090206002015490565b6000828152600160205260409020600201546107d9906107d46110c1565b610c07565b6108145760405162461bcd60e51b815260040180806020018281038252602f815260200180611701602f913960400191505060405180910390fd5b61081e828261121b565b5050565b61082a6110c1565b6001600160a01b0316816001600160a01b0316146108795760405162461bcd60e51b815260040180806020018281038252602f81526020018061180d602f913960400191505060405180910390fd5b61081e8282611284565b6001600160a01b031660009081526007602052604090205490565b60008051602061173083398151915281565b600554610100900460ff1681565b60035481565b600554610100900460ff1615610916576040805162461bcd60e51b815260206004820152601260248201527110dbdb9d1c9858dd081a5cc814185d5cd95960721b604482015290519081900360640190fd5b60055460ff161561095c576040805162461bcd60e51b815260206004820152601f6024820152600080516020611776833981519152604482015290519081900360640190fd5b6109867fd4e0807919e2b1ad2d101a8010f38574b7a50a04293f99385e3bbe6dacd4576133610c07565b61098f57600080fd5b60005b600654811015610a5b573360006109a882610e29565b6001600160a01b0383166000908152600860205260409020549091506109ce90826111c1565b6001600160a01b038084166000818152600860205260408082209490945560025484516308934a5f60e31b815260048101939093526024830186905293519390921692839263449a52f8926044808201939182900301818387803b158015610a3557600080fd5b505af1158015610a49573d6000803e3d6000fd5b50505050505050600181019050610992565b50565b600554610100900460ff1615610ab0576040805162461bcd60e51b815260206004820152601260248201527110dbdb9d1c9858dd081a5cc814185d5cd95960721b604482015290519081900360640190fd5b610ac860008051602061173083398151915233610c07565b610ad157600080fd5b600455565b610ade6110c1565b6000546001600160a01b03908116911614610b2e576040805162461bcd60e51b815260206004820181905260248201526000805160206117ed833981519152604482015290519081900360640190fd5b600080546040516001600160a01b03909116907f8be0079c531659141344cd1fd0a4f28419497f9722a3daafe3b4186f6b6457e0908390a3600080546001600160a01b0319169055565b600080805b600654811015610bd157610bc76008600060068481548110610b9b57fe5b60009182526020808320909101546001600160a01b0316835282019290925260400190205483906111c1565b9150600101610b7d565b50905090565b6000546001600160a01b031690565b6000828152600160205260408120610bfe90836112ed565b90505b92915050565b6000828152600160205260408120610bfe90836112f9565b600554610100900460ff1615610c71576040805162461bcd60e51b815260206004820152601260248201527110dbdb9d1c9858dd081a5cc814185d5cd95960721b604482015290519081900360640190fd5b60055460ff1615610cb7576040805162461bcd60e51b815260206004820152601f6024820152600080516020611776833981519152604482015290519081900360640190fd5b33600090815260076020526040902054610cd1908261130e565b336000908152600760205260409020819055610cf057610cf033611350565b600254604080516308934a5f60e31b81523360048201526024810184905290516001600160a01b0390921691829163449a52f891604480830192600092919082900301818387803b15801561076a57600080fd5b610d5c60008051602061173083398151915233610c07565b610d6557600080fd5b6005805460ff1916911515919091179055565b600081565b60055460ff1681565b60045481565b600080805b600654811015610bd157610daf6007600060068481548110610b9b57fe5b9150600101610d91565b6000818152600160205260408120610c0190611497565b600082815260016020526040902060020154610dee906107d46110c1565b6108795760405162461bcd60e51b81526004018080602001828103825260308152602001806117bd6030913960400191505060405180910390fd5b6003546001600160a01b03821660009081526007602052604081205490919081610e4f57fe5b0492915050565b610e5e6110c1565b6000546001600160a01b03908116911614610eae576040805162461bcd60e51b815260206004820181905260248201526000805160206117ed833981519152604482015290519081900360640190fd5b600280546001600160a01b0319166001600160a01b0392909216919091179055565b60008060005b600654811015610f1f5760068181548110610eed57fe5b6000918252602090912001546001600160a01b0385811691161415610f1757600192509050610f28565b600101610ed6565b50600080915091505b915091565b610f356110c1565b6000546001600160a01b03908116911614610f85576040805162461bcd60e51b815260206004820181905260248201526000805160206117ed833981519152604482015290519081900360640190fd5b6001600160a01b038116610fca5760405162461bcd60e51b81526004018080602001828103825260268152602001806117506026913960400191505060405180910390fd5b600080546040516001600160a01b03808516939216917f8be0079c531659141344cd1fd0a4f28419497f9722a3daafe3b4186f6b6457e091a3600080546001600160a01b0319166001600160a01b0392909216919091179055565b600554610100900460ff1615611077576040805162461bcd60e51b815260206004820152601260248201527110dbdb9d1c9858dd081a5cc814185d5cd95960721b604482015290519081900360640190fd5b61108f60008051602061173083398151915233610c07565b61109857600080fd5b600355565b6002546001600160a01b031681565b6000610bfe836001600160a01b0384166114a2565b3390565b600554610100900460ff1615611117576040805162461bcd60e51b815260206004820152601260248201527110dbdb9d1c9858dd081a5cc814185d5cd95960721b604482015290519081900360640190fd5b60055460ff161561115d576040805162461bcd60e51b815260206004820152601f6024820152600080516020611776833981519152604482015290519081900360640190fd5b600061116882610ed0565b5090508061081e57600680546001810182556000919091527ff652222313e28459528d920b65115c16c04f3efc82aaedc97be59f3f377c0d3f0180546001600160a01b0384166001600160a01b03199091161790555050565b600082820183811015610bfe576040805162461bcd60e51b815260206004820152601b60248201527f536166654d6174683a206164646974696f6e206f766572666c6f770000000000604482015290519081900360640190fd5b600082815260016020526040902061123390826110ac565b1561081e576112406110c1565b6001600160a01b0316816001600160a01b0316837f2f8788117e7eff1d82e926ec794901d17c78024a50270940304540a733656f0d60405160405180910390a45050565b600082815260016020526040902061129c90826114ec565b1561081e576112a96110c1565b6001600160a01b0316816001600160a01b0316837ff6391f5c32d9c69d2a47ea670b442974b53935d1edc7fd64eb21e047a839171b60405160405180910390a45050565b6000610bfe8383611501565b6000610bfe836001600160a01b038416611565565b6000610bfe83836040518060400160405280601e81526020017f536166654d6174683a207375627472616374696f6e206f766572666c6f77000081525061157d565b600554610100900460ff16156113a2576040805162461bcd60e51b815260206004820152601260248201527110dbdb9d1c9858dd081a5cc814185d5cd95960721b604482015290519081900360640190fd5b60055460ff16156113e8576040805162461bcd60e51b815260206004820152601f6024820152600080516020611776833981519152604482015290519081900360640190fd5b6000806113f483610ed0565b9150915081156114925760068054600019810190811061141057fe5b600091825260209091200154600680546001600160a01b03909216918390811061143657fe5b9060005260206000200160006101000a8154816001600160a01b0302191690836001600160a01b03160217905550600680548061146f57fe5b600082815260209020810160001990810180546001600160a01b03191690550190555b505050565b6000610c0182611614565b60006114ae8383611565565b6114e457508154600181810184556000848152602080822090930184905584548482528286019093526040902091909155610c01565b506000610c01565b6000610bfe836001600160a01b038416611618565b815460009082106115435760405162461bcd60e51b81526004018080602001828103825260228152602001806116df6022913960400191505060405180910390fd5b82600001828154811061155257fe5b9060005260206000200154905092915050565b60009081526001919091016020526040902054151590565b6000818484111561160c5760405162461bcd60e51b81526004018080602001828103825283818151815260200191508051906020019080838360005b838110156115d15781810151838201526020016115b9565b50505050905090810190601f1680156115fe5780820380516001836020036101000a031916815260200191505b509250505060405180910390fd5b505050900390565b5490565b600081815260018301602052604081205480156116d4578354600019808301919081019060009087908390811061164b57fe5b906000526020600020015490508087600001848154811061166857fe5b60009182526020808320909101929092558281526001898101909252604090209084019055865487908061169857fe5b60019003818190600052602060002001600090559055866001016000878152602001908152602001600020600090556001945050505050610c01565b6000915050610c0156fe456e756d657261626c655365743a20696e646578206f7574206f6620626f756e6473416363657373436f6e74726f6c3a2073656e646572206d75737420626520616e2061646d696e20746f206772616e747308377bbcfee4c643b62e55a600f0c1ee294f1d8949667b05bfef816828e2844f776e61626c653a206e6577206f776e657220697320746865207a65726f20616464726573735374616b696e67206973206e6f742063757272656e746c79206163746976650043616e2774205374616b65204d6f7265207468616e20616c6c6f776564206d6f6e657962616773416363657373436f6e74726f6c3a2073656e646572206d75737420626520616e2061646d696e20746f207265766f6b654f776e61626c653a2063616c6c6572206973206e6f7420746865206f776e6572416363657373436f6e74726f6c3a2063616e206f6e6c792072656e6f756e636520726f6c657320666f722073656c66a264697066735822122050d54d4826fbe9b9216c47f4cf43ed72b94265fe83516df71b8f0644ee76a01564736f6c63430007000033",
    "sourcePath": "/home/hooftly/Projects/token-alpha-test/contracts/Staking.sol",
    "compiler": {
        "name": "solc",
        "version": "0.7.0+commit.9e61f92b"
    },
    "functionHashes": {
        "DEFAULT_ADMIN_ROLE()": "a217fddf",
        "_DISTRIBUTOR()": "0a68a0cc",
        "_STAKING()": "5c894fe3",
        "calculateReward(address)": "d82e3962",
        "createStake(uint256)": "1bf6ddae",
        "distributeRewards()": "6f4a2cd0",
        "getRoleAdmin(bytes32)": "248a9ca3",
        "getRoleMember(bytes32,uint256)": "9010d07c",
        "getRoleMemberCount(bytes32)": "ca15c873",
        "grantRole(bytes32,address)": "2f2ff15d",
        "hasRole(bytes32,address)": "91d14854",
        "isStakeholder(address)": "ef037b90",
        "owner()": "8da5cb5b",
        "paused()": "5c975abb",
        "removeStake(uint256)": "939624ab",
        "renounceOwnership()": "715018a6",
        "renounceRole(bytes32,address)": "36568abe",
        "revokeRole(bytes32,address)": "d547741f",
        "rewardOf(address)": "1d62ebd9",
        "setAddress(address)": "e30081a0",
        "setPaused(bool)": "16c38b3c",
        "setStakeCalc(uint256)": "f3bccba3",
        "setStakeCap(uint256)": "70805435",
        "stakeCalc()": "68f34eb5",
        "stakeCap()": "ba28fd2e",
        "stakeOf(address)": "42623360",
        "stakeOff(bool)": "97e459f9",
        "stakingOff()": "ad67ddcb",
        "token()": "fc0c546a",
        "totalRewardsPaid()": "74958e35",
        "totalStakes()": "bf9befb1",
        "transferOwnership(address)": "f2fde38b"
    },
    "gasEstimates": {
        "creation": {
            "codeDepositCost": "1251400",
            "executionCost": "infinite",
            "totalCost": "infinite"
        },
        "external": {
            "DEFAULT_ADMIN_ROLE()": "243",
            "_DISTRIBUTOR()": "245",
            "_STAKING()": "infinite",
            "calculateReward(address)": "2075",
            "createStake(uint256)": "infinite",
            "distributeRewards()": "infinite",
            "getRoleAdmin(bytes32)": "1158",
            "getRoleMember(bytes32,uint256)": "infinite",
            "getRoleMemberCount(bytes32)": "infinite",
            "grantRole(bytes32,address)": "infinite",
            "hasRole(bytes32,address)": "infinite",
            "isStakeholder(address)": "infinite",
            "owner()": "1148",
            "paused()": "1089",
            "removeStake(uint256)": "infinite",
            "renounceOwnership()": "infinite",
            "renounceRole(bytes32,address)": "infinite",
            "revokeRole(bytes32,address)": "infinite",
            "rewardOf(address)": "1255",
            "setAddress(address)": "infinite",
            "setPaused(bool)": "infinite",
            "setStakeCalc(uint256)": "infinite",
            "setStakeCap(uint256)": "infinite",
            "stakeCalc()": "1088",
            "stakeCap()": "1087",
            "stakeOf(address)": "1254",
            "stakeOff(bool)": "infinite",
            "stakingOff()": "1077",
            "token()": "1147",
            "totalRewardsPaid()": "infinite",
            "totalStakes()": "infinite",
            "transferOwnership(address)": "infinite"
        },
        "internal": {
            "addStakeholder(address)": "infinite",
            "removeStakeholder(address)": "infinite"
        }
    }
}