{
  "contractName": "FMTAToken",
  "abi": [
    {
      "inputs": [],
      "stateMutability": "nonpayable",
      "type": "constructor"
    },
    {
      "anonymous": false,
      "inputs": [
        {
          "indexed": true,
          "internalType": "address",
          "name": "owner",
          "type": "address"
        },
        {
          "indexed": true,
          "internalType": "address",
          "name": "spender",
          "type": "address"
        },
        {
          "indexed": false,
          "internalType": "uint256",
          "name": "value",
          "type": "uint256"
        }
      ],
      "name": "Approval",
      "type": "event"
    },
    {
      "anonymous": false,
      "inputs": [
        {
          "indexed": true,
          "internalType": "address",
          "name": "previousOwner",
          "type": "address"
        },
        {
          "indexed": true,
          "internalType": "address",
          "name": "newOwner",
          "type": "address"
        }
      ],
      "name": "OwnershipTransferred",
      "type": "event"
    },
    {
      "anonymous": false,
      "inputs": [
        {
          "indexed": true,
          "internalType": "bytes32",
          "name": "role",
          "type": "bytes32"
        },
        {
          "indexed": true,
          "internalType": "bytes32",
          "name": "previousAdminRole",
          "type": "bytes32"
        },
        {
          "indexed": true,
          "internalType": "bytes32",
          "name": "newAdminRole",
          "type": "bytes32"
        }
      ],
      "name": "RoleAdminChanged",
      "type": "event"
    },
    {
      "anonymous": false,
      "inputs": [
        {
          "indexed": true,
          "internalType": "bytes32",
          "name": "role",
          "type": "bytes32"
        },
        {
          "indexed": true,
          "internalType": "address",
          "name": "account",
          "type": "address"
        },
        {
          "indexed": true,
          "internalType": "address",
          "name": "sender",
          "type": "address"
        }
      ],
      "name": "RoleGranted",
      "type": "event"
    },
    {
      "anonymous": false,
      "inputs": [
        {
          "indexed": true,
          "internalType": "bytes32",
          "name": "role",
          "type": "bytes32"
        },
        {
          "indexed": true,
          "internalType": "address",
          "name": "account",
          "type": "address"
        },
        {
          "indexed": true,
          "internalType": "address",
          "name": "sender",
          "type": "address"
        }
      ],
      "name": "RoleRevoked",
      "type": "event"
    },
    {
      "anonymous": false,
      "inputs": [
        {
          "indexed": true,
          "internalType": "address",
          "name": "from",
          "type": "address"
        },
        {
          "indexed": true,
          "internalType": "address",
          "name": "to",
          "type": "address"
        },
        {
          "indexed": false,
          "internalType": "uint256",
          "name": "value",
          "type": "uint256"
        }
      ],
      "name": "Transfer",
      "type": "event"
    },
    {
      "inputs": [],
      "name": "DEFAULT_ADMIN_ROLE",
      "outputs": [
        {
          "internalType": "bytes32",
          "name": "",
          "type": "bytes32"
        }
      ],
      "stateMutability": "view",
      "type": "function",
      "constant": true
    },
    {
      "inputs": [],
      "name": "USER_ROLE",
      "outputs": [
        {
          "internalType": "bytes32",
          "name": "",
          "type": "bytes32"
        }
      ],
      "stateMutability": "view",
      "type": "function",
      "constant": true
    },
    {
      "inputs": [],
      "name": "_BURNER",
      "outputs": [
        {
          "internalType": "bytes32",
          "name": "",
          "type": "bytes32"
        }
      ],
      "stateMutability": "view",
      "type": "function",
      "constant": true
    },
    {
      "inputs": [],
      "name": "_DISTRIBUTOR",
      "outputs": [
        {
          "internalType": "bytes32",
          "name": "",
          "type": "bytes32"
        }
      ],
      "stateMutability": "view",
      "type": "function",
      "constant": true
    },
    {
      "inputs": [],
      "name": "_MINTER",
      "outputs": [
        {
          "internalType": "bytes32",
          "name": "",
          "type": "bytes32"
        }
      ],
      "stateMutability": "view",
      "type": "function",
      "constant": true
    },
    {
      "inputs": [],
      "name": "_STAKING",
      "outputs": [
        {
          "internalType": "bytes32",
          "name": "",
          "type": "bytes32"
        }
      ],
      "stateMutability": "view",
      "type": "function",
      "constant": true
    },
    {
      "inputs": [],
      "name": "_SUPPLY",
      "outputs": [
        {
          "internalType": "bytes32",
          "name": "",
          "type": "bytes32"
        }
      ],
      "stateMutability": "view",
      "type": "function",
      "constant": true
    },
    {
      "inputs": [],
      "name": "_VOTING",
      "outputs": [
        {
          "internalType": "bytes32",
          "name": "",
          "type": "bytes32"
        }
      ],
      "stateMutability": "view",
      "type": "function",
      "constant": true
    },
    {
      "inputs": [],
      "name": "_premine",
      "outputs": [
        {
          "internalType": "uint256",
          "name": "",
          "type": "uint256"
        }
      ],
      "stateMutability": "view",
      "type": "function",
      "constant": true
    },
    {
      "inputs": [
        {
          "internalType": "address",
          "name": "owner",
          "type": "address"
        },
        {
          "internalType": "address",
          "name": "spender",
          "type": "address"
        }
      ],
      "name": "allowance",
      "outputs": [
        {
          "internalType": "uint256",
          "name": "",
          "type": "uint256"
        }
      ],
      "stateMutability": "view",
      "type": "function",
      "constant": true
    },
    {
      "inputs": [
        {
          "internalType": "address",
          "name": "spender",
          "type": "address"
        },
        {
          "internalType": "uint256",
          "name": "amount",
          "type": "uint256"
        }
      ],
      "name": "approve",
      "outputs": [
        {
          "internalType": "bool",
          "name": "",
          "type": "bool"
        }
      ],
      "stateMutability": "nonpayable",
      "type": "function"
    },
    {
      "inputs": [
        {
          "internalType": "address",
          "name": "account",
          "type": "address"
        }
      ],
      "name": "balanceOf",
      "outputs": [
        {
          "internalType": "uint256",
          "name": "",
          "type": "uint256"
        }
      ],
      "stateMutability": "view",
      "type": "function",
      "constant": true
    },
    {
      "inputs": [],
      "name": "decimals",
      "outputs": [
        {
          "internalType": "uint8",
          "name": "",
          "type": "uint8"
        }
      ],
      "stateMutability": "view",
      "type": "function",
      "constant": true
    },
    {
      "inputs": [
        {
          "internalType": "address",
          "name": "spender",
          "type": "address"
        },
        {
          "internalType": "uint256",
          "name": "subtractedValue",
          "type": "uint256"
        }
      ],
      "name": "decreaseAllowance",
      "outputs": [
        {
          "internalType": "bool",
          "name": "",
          "type": "bool"
        }
      ],
      "stateMutability": "nonpayable",
      "type": "function"
    },
    {
      "inputs": [
        {
          "internalType": "bytes32",
          "name": "role",
          "type": "bytes32"
        }
      ],
      "name": "getRoleAdmin",
      "outputs": [
        {
          "internalType": "bytes32",
          "name": "",
          "type": "bytes32"
        }
      ],
      "stateMutability": "view",
      "type": "function",
      "constant": true
    },
    {
      "inputs": [
        {
          "internalType": "bytes32",
          "name": "role",
          "type": "bytes32"
        },
        {
          "internalType": "uint256",
          "name": "index",
          "type": "uint256"
        }
      ],
      "name": "getRoleMember",
      "outputs": [
        {
          "internalType": "address",
          "name": "",
          "type": "address"
        }
      ],
      "stateMutability": "view",
      "type": "function",
      "constant": true
    },
    {
      "inputs": [
        {
          "internalType": "bytes32",
          "name": "role",
          "type": "bytes32"
        }
      ],
      "name": "getRoleMemberCount",
      "outputs": [
        {
          "internalType": "uint256",
          "name": "",
          "type": "uint256"
        }
      ],
      "stateMutability": "view",
      "type": "function",
      "constant": true
    },
    {
      "inputs": [
        {
          "internalType": "bytes32",
          "name": "role",
          "type": "bytes32"
        },
        {
          "internalType": "address",
          "name": "account",
          "type": "address"
        }
      ],
      "name": "grantRole",
      "outputs": [],
      "stateMutability": "nonpayable",
      "type": "function"
    },
    {
      "inputs": [
        {
          "internalType": "bytes32",
          "name": "role",
          "type": "bytes32"
        },
        {
          "internalType": "address",
          "name": "account",
          "type": "address"
        }
      ],
      "name": "hasRole",
      "outputs": [
        {
          "internalType": "bool",
          "name": "",
          "type": "bool"
        }
      ],
      "stateMutability": "view",
      "type": "function",
      "constant": true
    },
    {
      "inputs": [
        {
          "internalType": "address",
          "name": "spender",
          "type": "address"
        },
        {
          "internalType": "uint256",
          "name": "addedValue",
          "type": "uint256"
        }
      ],
      "name": "increaseAllowance",
      "outputs": [
        {
          "internalType": "bool",
          "name": "",
          "type": "bool"
        }
      ],
      "stateMutability": "nonpayable",
      "type": "function"
    },
    {
      "inputs": [],
      "name": "name",
      "outputs": [
        {
          "internalType": "string",
          "name": "",
          "type": "string"
        }
      ],
      "stateMutability": "view",
      "type": "function",
      "constant": true
    },
    {
      "inputs": [],
      "name": "owner",
      "outputs": [
        {
          "internalType": "address",
          "name": "",
          "type": "address"
        }
      ],
      "stateMutability": "view",
      "type": "function",
      "constant": true
    },
    {
      "inputs": [],
      "name": "paused",
      "outputs": [
        {
          "internalType": "bool",
          "name": "",
          "type": "bool"
        }
      ],
      "stateMutability": "view",
      "type": "function",
      "constant": true
    },
    {
      "inputs": [],
      "name": "renounceOwnership",
      "outputs": [],
      "stateMutability": "nonpayable",
      "type": "function"
    },
    {
      "inputs": [
        {
          "internalType": "bytes32",
          "name": "role",
          "type": "bytes32"
        },
        {
          "internalType": "address",
          "name": "account",
          "type": "address"
        }
      ],
      "name": "renounceRole",
      "outputs": [],
      "stateMutability": "nonpayable",
      "type": "function"
    },
    {
      "inputs": [
        {
          "internalType": "bytes32",
          "name": "role",
          "type": "bytes32"
        },
        {
          "internalType": "address",
          "name": "account",
          "type": "address"
        }
      ],
      "name": "revokeRole",
      "outputs": [],
      "stateMutability": "nonpayable",
      "type": "function"
    },
    {
      "inputs": [],
      "name": "stakeCalc",
      "outputs": [
        {
          "internalType": "uint256",
          "name": "",
          "type": "uint256"
        }
      ],
      "stateMutability": "view",
      "type": "function",
      "constant": true
    },
    {
      "inputs": [],
      "name": "stakeCap",
      "outputs": [
        {
          "internalType": "uint256",
          "name": "",
          "type": "uint256"
        }
      ],
      "stateMutability": "view",
      "type": "function",
      "constant": true
    },
    {
      "inputs": [],
      "name": "stakingOff",
      "outputs": [
        {
          "internalType": "bool",
          "name": "",
          "type": "bool"
        }
      ],
      "stateMutability": "view",
      "type": "function",
      "constant": true
    },
    {
      "inputs": [],
      "name": "symbol",
      "outputs": [
        {
          "internalType": "string",
          "name": "",
          "type": "string"
        }
      ],
      "stateMutability": "view",
      "type": "function",
      "constant": true
    },
    {
      "inputs": [],
      "name": "totalSupply",
      "outputs": [
        {
          "internalType": "uint256",
          "name": "",
          "type": "uint256"
        }
      ],
      "stateMutability": "view",
      "type": "function",
      "constant": true
    },
    {
      "inputs": [
        {
          "internalType": "address",
          "name": "recipient",
          "type": "address"
        },
        {
          "internalType": "uint256",
          "name": "amount",
          "type": "uint256"
        }
      ],
      "name": "transfer",
      "outputs": [
        {
          "internalType": "bool",
          "name": "",
          "type": "bool"
        }
      ],
      "stateMutability": "nonpayable",
      "type": "function"
    },
    {
      "inputs": [
        {
          "internalType": "address",
          "name": "sender",
          "type": "address"
        },
        {
          "internalType": "address",
          "name": "recipient",
          "type": "address"
        },
        {
          "internalType": "uint256",
          "name": "amount",
          "type": "uint256"
        }
      ],
      "name": "transferFrom",
      "outputs": [
        {
          "internalType": "bool",
          "name": "",
          "type": "bool"
        }
      ],
      "stateMutability": "nonpayable",
      "type": "function"
    },
    {
      "inputs": [
        {
          "internalType": "address",
          "name": "newOwner",
          "type": "address"
        }
      ],
      "name": "transferOwnership",
      "outputs": [],
      "stateMutability": "nonpayable",
      "type": "function"
    },
    {
      "inputs": [],
      "name": "votingOff",
      "outputs": [
        {
          "internalType": "bool",
          "name": "",
          "type": "bool"
        }
      ],
      "stateMutability": "view",
      "type": "function",
      "constant": true
    },
    {
      "inputs": [
        {
          "internalType": "address",
          "name": "_to",
          "type": "address"
        },
        {
          "internalType": "uint256",
          "name": "_amount",
          "type": "uint256"
        }
      ],
      "name": "mintTo",
      "outputs": [],
      "stateMutability": "nonpayable",
      "type": "function"
    },
    {
      "inputs": [
        {
          "internalType": "uint256",
          "name": "_amount",
          "type": "uint256"
        }
      ],
      "name": "mint",
      "outputs": [],
      "stateMutability": "nonpayable",
      "type": "function"
    },
    {
      "inputs": [
        {
          "internalType": "uint256",
          "name": "_amount",
          "type": "uint256"
        }
      ],
      "name": "burn",
      "outputs": [],
      "stateMutability": "nonpayable",
      "type": "function"
    },
    {
      "inputs": [
        {
          "internalType": "address",
          "name": "_from",
          "type": "address"
        },
        {
          "internalType": "uint256",
          "name": "_amount",
          "type": "uint256"
        }
      ],
      "name": "burnFrom",
      "outputs": [],
      "stateMutability": "nonpayable",
      "type": "function"
    },
    {
      "inputs": [
        {
          "internalType": "uint256",
          "name": "_supplyCap",
          "type": "uint256"
        }
      ],
      "name": "setSupplyCap",
      "outputs": [],
      "stateMutability": "nonpayable",
      "type": "function"
    },
    {
      "inputs": [],
      "name": "supplyCap",
      "outputs": [
        {
          "internalType": "uint256",
          "name": "",
          "type": "uint256"
        }
      ],
      "stateMutability": "view",
      "type": "function",
      "constant": true
    },
    {
      "inputs": [
        {
          "internalType": "bool",
          "name": "_paused",
          "type": "bool"
        }
      ],
      "name": "setPaused",
      "outputs": [],
      "stateMutability": "nonpayable",
      "type": "function"
    },
    {
      "inputs": [
        {
          "internalType": "uint256",
          "name": "_stake",
          "type": "uint256"
        }
      ],
      "name": "createStake",
      "outputs": [],
      "stateMutability": "nonpayable",
      "type": "function"
    },
    {
      "inputs": [
        {
          "internalType": "uint256",
          "name": "_stake",
          "type": "uint256"
        }
      ],
      "name": "removeStake",
      "outputs": [],
      "stateMutability": "nonpayable",
      "type": "function"
    },
    {
      "inputs": [
        {
          "internalType": "address",
          "name": "_stakeholder",
          "type": "address"
        }
      ],
      "name": "stakeOf",
      "outputs": [
        {
          "internalType": "uint256",
          "name": "",
          "type": "uint256"
        }
      ],
      "stateMutability": "view",
      "type": "function",
      "constant": true
    },
    {
      "inputs": [],
      "name": "totalStakes",
      "outputs": [
        {
          "internalType": "uint256",
          "name": "",
          "type": "uint256"
        }
      ],
      "stateMutability": "view",
      "type": "function",
      "constant": true
    },
    {
      "inputs": [
        {
          "internalType": "address",
          "name": "_address",
          "type": "address"
        }
      ],
      "name": "isStakeholder",
      "outputs": [
        {
          "internalType": "bool",
          "name": "",
          "type": "bool"
        },
        {
          "internalType": "uint256",
          "name": "",
          "type": "uint256"
        }
      ],
      "stateMutability": "view",
      "type": "function",
      "constant": true
    },
    {
      "inputs": [
        {
          "internalType": "address",
          "name": "_stakeholder",
          "type": "address"
        }
      ],
      "name": "addStakeholder",
      "outputs": [],
      "stateMutability": "nonpayable",
      "type": "function"
    },
    {
      "inputs": [
        {
          "internalType": "address",
          "name": "_stakeholder",
          "type": "address"
        }
      ],
      "name": "removeStakeholder",
      "outputs": [],
      "stateMutability": "nonpayable",
      "type": "function"
    },
    {
      "inputs": [
        {
          "internalType": "address",
          "name": "_stakeholder",
          "type": "address"
        }
      ],
      "name": "rewardOf",
      "outputs": [
        {
          "internalType": "uint256",
          "name": "",
          "type": "uint256"
        }
      ],
      "stateMutability": "view",
      "type": "function",
      "constant": true
    },
    {
      "inputs": [],
      "name": "totalRewards",
      "outputs": [
        {
          "internalType": "uint256",
          "name": "",
          "type": "uint256"
        }
      ],
      "stateMutability": "view",
      "type": "function",
      "constant": true
    },
    {
      "inputs": [
        {
          "internalType": "uint256",
          "name": "_stakeCalc",
          "type": "uint256"
        }
      ],
      "name": "setStakeCalc",
      "outputs": [],
      "stateMutability": "nonpayable",
      "type": "function"
    },
    {
      "inputs": [
        {
          "internalType": "uint256",
          "name": "_stakeCap",
          "type": "uint256"
        }
      ],
      "name": "setStakeCap",
      "outputs": [],
      "stateMutability": "nonpayable",
      "type": "function"
    },
    {
      "inputs": [
        {
          "internalType": "address",
          "name": "_stakeholder",
          "type": "address"
        }
      ],
      "name": "calculateReward",
      "outputs": [
        {
          "internalType": "uint256",
          "name": "",
          "type": "uint256"
        }
      ],
      "stateMutability": "view",
      "type": "function",
      "constant": true
    },
    {
      "inputs": [],
      "name": "distributeRewards",
      "outputs": [],
      "stateMutability": "nonpayable",
      "type": "function"
    },
    {
      "inputs": [
        {
          "internalType": "bool",
          "name": "_stakingOff",
          "type": "bool"
        }
      ],
      "name": "stakeOff",
      "outputs": [],
      "stateMutability": "nonpayable",
      "type": "function"
    },
    {
      "inputs": [
        {
          "internalType": "uint256",
          "name": "_vote",
          "type": "uint256"
        }
      ],
      "name": "createVote",
      "outputs": [],
      "stateMutability": "nonpayable",
      "type": "function"
    },
    {
      "inputs": [
        {
          "internalType": "uint256",
          "name": "_vote",
          "type": "uint256"
        }
      ],
      "name": "removeVote",
      "outputs": [],
      "stateMutability": "nonpayable",
      "type": "function"
    },
    {
      "inputs": [
        {
          "internalType": "address",
          "name": "_voter",
          "type": "address"
        }
      ],
      "name": "voteOf",
      "outputs": [
        {
          "internalType": "uint256",
          "name": "",
          "type": "uint256"
        }
      ],
      "stateMutability": "view",
      "type": "function",
      "constant": true
    },
    {
      "inputs": [],
      "name": "totalVotes",
      "outputs": [
        {
          "internalType": "uint256",
          "name": "",
          "type": "uint256"
        }
      ],
      "stateMutability": "view",
      "type": "function",
      "constant": true
    },
    {
      "inputs": [
        {
          "internalType": "address",
          "name": "_address",
          "type": "address"
        }
      ],
      "name": "isVoter",
      "outputs": [
        {
          "internalType": "bool",
          "name": "",
          "type": "bool"
        },
        {
          "internalType": "uint256",
          "name": "",
          "type": "uint256"
        }
      ],
      "stateMutability": "view",
      "type": "function",
      "constant": true
    },
    {
      "inputs": [
        {
          "internalType": "address",
          "name": "_voter",
          "type": "address"
        }
      ],
      "name": "addVoter",
      "outputs": [],
      "stateMutability": "nonpayable",
      "type": "function"
    },
    {
      "inputs": [
        {
          "internalType": "address",
          "name": "_voter",
          "type": "address"
        }
      ],
      "name": "removeVoter",
      "outputs": [],
      "stateMutability": "nonpayable",
      "type": "function"
    },
    {
      "inputs": [
        {
          "internalType": "bool",
          "name": "_votingOff",
          "type": "bool"
        }
      ],
      "name": "voteOff",
      "outputs": [],
      "stateMutability": "nonpayable",
      "type": "function"
    },
    {
      "inputs": [
        {
          "internalType": "address",
          "name": "account",
          "type": "address"
        }
      ],
      "name": "isAdmin",
      "outputs": [
        {
          "internalType": "bool",
          "name": "",
          "type": "bool"
        }
      ],
      "stateMutability": "view",
      "type": "function",
      "constant": true
    },
    {
      "inputs": [
        {
          "internalType": "address",
          "name": "account",
          "type": "address"
        }
      ],
      "name": "isUser",
      "outputs": [
        {
          "internalType": "bool",
          "name": "",
          "type": "bool"
        }
      ],
      "stateMutability": "view",
      "type": "function",
      "constant": true
    },
    {
      "inputs": [
        {
          "internalType": "address",
          "name": "account",
          "type": "address"
        }
      ],
      "name": "addUser",
      "outputs": [],
      "stateMutability": "nonpayable",
      "type": "function"
    },
    {
      "inputs": [
        {
          "internalType": "address",
          "name": "account",
          "type": "address"
        }
      ],
      "name": "addAdmin",
      "outputs": [],
      "stateMutability": "nonpayable",
      "type": "function"
    },
    {
      "inputs": [
        {
          "internalType": "address",
          "name": "account",
          "type": "address"
        }
      ],
      "name": "removeAdmin",
      "outputs": [],
      "stateMutability": "nonpayable",
      "type": "function"
    },
    {
      "inputs": [
        {
          "internalType": "address",
          "name": "account",
          "type": "address"
        }
      ],
      "name": "removeUser",
      "outputs": [],
      "stateMutability": "nonpayable",
      "type": "function"
    },
    {
      "inputs": [],
      "name": "renounceAdmin",
      "outputs": [],
      "stateMutability": "nonpayable",
      "type": "function"
    }
  ],
  "bytecode": "0x60806040526a295be96e640669720000006007556103e8600d5569065a4da25d3016c00000600e556001600f60006101000a81548160ff0219169083151502179055506001601260006101000a81548160ff0219169083151502179055503480156200006a57600080fd5b506040518060400160405280600581526020017f544553545400000000000000000000000000000000000000000000000000000081525060039080519060200190620000b892919062000794565b506040518060400160405280600481526020017f5445535400000000000000000000000000000000000000000000000000000000815250600490805190602001906200010692919062000794565b506012600560006101000a81548160ff021916908360ff1602179055506000620001356200024a60201b60201c565b905080600560016101000a81548173ffffffffffffffffffffffffffffffffffffffff021916908373ffffffffffffffffffffffffffffffffffffffff1602179055508073ffffffffffffffffffffffffffffffffffffffff16600073ffffffffffffffffffffffffffffffffffffffff167f8be0079c531659141344cd1fd0a4f28419497f9722a3daafe3b4186f6b6457e060405160405180910390a3506a06342fd08f00f637800000600881905550620001fa336008546200025260201b60201c565b6200020f6000801b336200043060201b60201c565b620002447f2db9fd3d099848027c2383d0a083396f6c41510d7acfd92adc99b6cffcf31e966000801b6200044660201b60201c565b6200083a565b600033905090565b600073ffffffffffffffffffffffffffffffffffffffff168273ffffffffffffffffffffffffffffffffffffffff161415620002f6576040517f08c379a000000000000000000000000000000000000000000000000000000000815260040180806020018281038252601f8152602001807f45524332303a206d696e7420746f20746865207a65726f20616464726573730081525060200191505060405180910390fd5b6200030a60008383620004aa60201b60201c565b62000326816002546200058360201b620042981790919060201c565b60028190555062000384816000808573ffffffffffffffffffffffffffffffffffffffff1673ffffffffffffffffffffffffffffffffffffffff168152602001908152602001600020546200058360201b620042981790919060201c565b6000808473ffffffffffffffffffffffffffffffffffffffff1673ffffffffffffffffffffffffffffffffffffffff168152602001908152602001600020819055508173ffffffffffffffffffffffffffffffffffffffff16600073ffffffffffffffffffffffffffffffffffffffff167fddf252ad1be2c89b69c2b068fc378daa952ba7f163c4a11628f55a4df523b3ef836040518082815260200191505060405180910390a35050565b6200044282826200060c60201b60201c565b5050565b806006600084815260200190815260200160002060020154837fbd79b86ffe0ab8e8776151514217cd7cacd52c909f66475c3af44e129f0b00ff60405160405180910390a48060066000848152602001908152602001600020600201819055505050565b620004c2838383620006b060201b620043201760201c565b600073ffffffffffffffffffffffffffffffffffffffff168373ffffffffffffffffffffffffffffffffffffffff1614156200057e57600754620005248262000510620006b560201b60201c565b6200058360201b620042981790919060201c565b11156200057d576040517f08c379a000000000000000000000000000000000000000000000000000000000815260040180806020018281038252602681526020018062005bea6026913960400191505060405180910390fd5b5b505050565b60008082840190508381101562000602576040517f08c379a000000000000000000000000000000000000000000000000000000000815260040180806020018281038252601b8152602001807f536166654d6174683a206164646974696f6e206f766572666c6f77000000000081525060200191505060405180910390fd5b8091505092915050565b6200063b8160066000858152602001908152602001600020600001620006bf60201b620043251790919060201c565b15620006ac57620006516200024a60201b60201c565b73ffffffffffffffffffffffffffffffffffffffff168173ffffffffffffffffffffffffffffffffffffffff16837f2f8788117e7eff1d82e926ec794901d17c78024a50270940304540a733656f0d60405160405180910390a45b5050565b505050565b6000600254905090565b6000620006ef836000018373ffffffffffffffffffffffffffffffffffffffff1660001b620006f760201b60201c565b905092915050565b60006200070b83836200077160201b60201c565b620007665782600001829080600181540180825580915050600190039060005260206000200160009091909190915055826000018054905083600101600084815260200190815260200160002081905550600190506200076b565b600090505b92915050565b600080836001016000848152602001908152602001600020541415905092915050565b828054600181600116156101000203166002900490600052602060002090601f016020900481019282601f10620007d757805160ff191683800117855562000808565b8280016001018555821562000808579182015b8281111562000807578251825591602001919060010190620007ea565b5b5090506200081791906200081b565b5090565b5b80821115620008365760008160009055506001016200081c565b5090565b6153a0806200084a6000396000f3fe608060405234801561001057600080fd5b506004361061041d5760003560e01c806379cc67901161022b578063ad67ddcb11610130578063dd62ed3e116100b8578063f2fde38b11610087578063f2fde38b146113bb578063f3b35100146113ff578063f3bccba314611457578063f4ab9adf14611485578063fa954aa0146114c95761041d565b8063dd62ed3e14611280578063e5c42fd1146112f8578063ea5cb5321461133c578063ef037b901461135a5761041d565b8063bcb0c2d7116100ff578063bcb0c2d714611136578063bf9befb11461117a578063ca15c87314611198578063d547741f146111da578063d82e3962146112285761041d565b8063ad67ddcb146110ac578063b6a3f59a146110cc578063b6fbf308146110fa578063ba28fd2e146111185761041d565b806395d89b41116101b3578063a217fddf11610182578063a217fddf14610f47578063a457c2d714610f65578063a56bef5d14610fc9578063a7771ee314610fe7578063a9059cbb146110485761041d565b806395d89b4114610e2257806397e459f914610ea55780639857518814610ed5578063a0712d6814610f195761041d565b80638da5cb5b116101fa5780638da5cb5b14610cdc5780638f770ad014610d105780639010d07c14610d2e57806391d1485414610d90578063939624ab14610df45761041d565b806379cc679014610c105780637e4a379614610c5e57806386c1ff6814610c8e5780638bad0c0a14610cd25761041d565b80633260685e116103315780635c894fe3116102b95780636f4a2cd0116102885780636f4a2cd014610b325780637048027514610b3c5780637080543514610b8057806370a0823114610bae578063715018a614610c065761041d565b80635c894fe314610ab65780635c975abb14610ad457806360a3ae0614610af457806368f34eb514610b145761041d565b80634209fff1116103005780634209fff114610944578063421b2d8b1461099e57806342623360146109e257806342966c6814610a3a578063449a52f814610a685761041d565b80633260685e1461084657806336568abe1461086457806339509351146108b25780633f68fde4146109165761041d565b80631785f53c116103b457806323b872dd1161038357806323b872dd146106b7578063248a9ca31461073b57806324d7806c1461077d5780632f2ff15d146107d7578063313ce567146108255761041d565b80631785f53c146105cf57806318160ddd146106135780631bf6ddae146106315780631d62ebd91461065f5761041d565b80630d15fd77116103f05780630d15fd77146105455780630e15561a14610563578063131191611461058157806316c38b3c1461059f5761041d565b806306fdde031461042257806308daaf4a146104a5578063095ea7b3146104c35780630a68a0cc14610527575b600080fd5b61042a6114f7565b6040518080602001828103825283818151815260200191508051906020019080838360005b8381101561046a57808201518184015260208101905061044f565b50505050905090810190601f1680156104975780820380516001836020036101000a031916815260200191505b509250505060405180910390f35b6104ad611599565b6040518082815260200191505060405180910390f35b61050f600480360360408110156104d957600080fd5b81019080803573ffffffffffffffffffffffffffffffffffffffff1690602001909291908035906020019092919050505061159f565b60405180821515815260200191505060405180910390f35b61052f6115bd565b6040518082815260200191505060405180910390f35b61054d6115e1565b6040518082815260200191505060405180910390f35b61056b611696565b6040518082815260200191505060405180910390f35b61058961174b565b6040518082815260200191505060405180910390f35b6105cd600480360360208110156105b557600080fd5b8101908080351515906020019092919050505061176f565b005b610611600480360360208110156105e557600080fd5b81019080803573ffffffffffffffffffffffffffffffffffffffff169060200190929190505050611856565b005b61061b611930565b6040518082815260200191505060405180910390f35b61065d6004803603602081101561064757600080fd5b810190808035906020019092919050505061193a565b005b6106a16004803603602081101561067557600080fd5b81019080803573ffffffffffffffffffffffffffffffffffffffff169060200190929190505050611beb565b6040518082815260200191505060405180910390f35b610723600480360360608110156106cd57600080fd5b81019080803573ffffffffffffffffffffffffffffffffffffffff169060200190929190803573ffffffffffffffffffffffffffffffffffffffff16906020019092919080359060200190929190505050611c34565b60405180821515815260200191505060405180910390f35b6107676004803603602081101561075157600080fd5b8101908080359060200190929190505050611d0d565b6040518082815260200191505060405180910390f35b6107bf6004803603602081101561079357600080fd5b81019080803573ffffffffffffffffffffffffffffffffffffffff169060200190929190505050611d2d565b60405180821515815260200191505060405180910390f35b610823600480360360408110156107ed57600080fd5b8101908080359060200190929190803573ffffffffffffffffffffffffffffffffffffffff169060200190929190505050611d43565b005b61082d611dcd565b604051808260ff16815260200191505060405180910390f35b61084e611de4565b6040518082815260200191505060405180910390f35b6108b06004803603604081101561087a57600080fd5b8101908080359060200190929190803573ffffffffffffffffffffffffffffffffffffffff169060200190929190505050611e08565b005b6108fe600480360360408110156108c857600080fd5b81019080803573ffffffffffffffffffffffffffffffffffffffff16906020019092919080359060200190929190505050611ea1565b60405180821515815260200191505060405180910390f35b6109426004803603602081101561092c57600080fd5b8101908080359060200190929190505050611f54565b005b6109866004803603602081101561095a57600080fd5b81019080803573ffffffffffffffffffffffffffffffffffffffff16906020019092919050505061214e565b60405180821515815260200191505060405180910390f35b6109e0600480360360208110156109b457600080fd5b81019080803573ffffffffffffffffffffffffffffffffffffffff169060200190929190505050612181565b005b610a24600480360360208110156109f857600080fd5b81019080803573ffffffffffffffffffffffffffffffffffffffff169060200190929190505050612229565b6040518082815260200191505060405180910390f35b610a6660048036036020811015610a5057600080fd5b8101908080359060200190929190505050612272565b005b610ab460048036036040811015610a7e57600080fd5b81019080803573ffffffffffffffffffffffffffffffffffffffff16906020019092919080359060200190929190505050612335565b005b610abe6123f9565b6040518082815260200191505060405180910390f35b610adc61241d565b60405180821515815260200191505060405180910390f35b610afc612430565b60405180821515815260200191505060405180910390f35b610b1c612443565b6040518082815260200191505060405180910390f35b610b3a612449565b005b610b7e60048036036020811015610b5257600080fd5b81019080803573ffffffffffffffffffffffffffffffffffffffff16906020019092919050505061268a565b005b610bac60048036036020811015610b9657600080fd5b8101908080359060200190929190505050612764565b005b610bf060048036036020811015610bc457600080fd5b81019080803573ffffffffffffffffffffffffffffffffffffffff169060200190929190505050612824565b6040518082815260200191505060405180910390f35b610c0e61286c565b005b610c5c60048036036040811015610c2657600080fd5b81019080803573ffffffffffffffffffffffffffffffffffffffff169060200190929190803590602001909291905050506129f7565b005b610c8c60048036036020811015610c7457600080fd5b81019080803515159060200190929190505050612abb565b005b610cd060048036036020811015610ca457600080fd5b81019080803573ffffffffffffffffffffffffffffffffffffffff169060200190929190505050612b0b565b005b610cda612d35565b005b610ce4612d44565b604051808273ffffffffffffffffffffffffffffffffffffffff16815260200191505060405180910390f35b610d18612d6e565b6040518082815260200191505060405180910390f35b610d6460048036036040811015610d4457600080fd5b810190808035906020019092919080359060200190929190505050612d78565b604051808273ffffffffffffffffffffffffffffffffffffffff16815260200191505060405180910390f35b610ddc60048036036040811015610da657600080fd5b8101908080359060200190929190803573ffffffffffffffffffffffffffffffffffffffff169060200190929190505050612daa565b60405180821515815260200191505060405180910390f35b610e2060048036036020811015610e0a57600080fd5b8101908080359060200190929190505050612ddc565b005b610e2a612fd6565b6040518080602001828103825283818151815260200191508051906020019080838360005b83811015610e6a578082015181840152602081019050610e4f565b50505050905090810190601f168015610e975780820380516001836020036101000a031916815260200191505b509250505060405180910390f35b610ed360048036036020811015610ebb57600080fd5b81019080803515159060200190929190505050613078565b005b610f1760048036036020811015610eeb57600080fd5b81019080803573ffffffffffffffffffffffffffffffffffffffff1690602001909291905050506130c8565b005b610f4560048036036020811015610f2f57600080fd5b8101908080359060200190929190505050613170565b005b610f4f613233565b6040518082815260200191505060405180910390f35b610fb160048036036040811015610f7b57600080fd5b81019080803573ffffffffffffffffffffffffffffffffffffffff1690602001909291908035906020019092919050505061323a565b60405180821515815260200191505060405180910390f35b610fd1613307565b6040518082815260200191505060405180910390f35b61102960048036036020811015610ffd57600080fd5b81019080803573ffffffffffffffffffffffffffffffffffffffff16906020019092919050505061332b565b6040518083151581526020018281526020019250505060405180910390f35b6110946004803603604081101561105e57600080fd5b81019080803573ffffffffffffffffffffffffffffffffffffffff169060200190929190803590602001909291905050506133cf565b60405180821515815260200191505060405180910390f35b6110b46133ed565b60405180821515815260200191505060405180910390f35b6110f8600480360360208110156110e257600080fd5b8101908080359060200190929190505050613400565b005b6111026134c0565b6040518082815260200191505060405180910390f35b6111206134e4565b6040518082815260200191505060405180910390f35b6111786004803603602081101561114c57600080fd5b81019080803573ffffffffffffffffffffffffffffffffffffffff1690602001909291905050506134ea565b005b611182613714565b6040518082815260200191505060405180910390f35b6111c4600480360360208110156111ae57600080fd5b81019080803590602001909291905050506137c9565b6040518082815260200191505060405180910390f35b611226600480360360408110156111f057600080fd5b8101908080359060200190929190803573ffffffffffffffffffffffffffffffffffffffff1690602001909291905050506137f0565b005b61126a6004803603602081101561123e57600080fd5b81019080803573ffffffffffffffffffffffffffffffffffffffff16906020019092919050505061387a565b6040518082815260200191505060405180910390f35b6112e26004803603604081101561129657600080fd5b81019080803573ffffffffffffffffffffffffffffffffffffffff169060200190929190803573ffffffffffffffffffffffffffffffffffffffff1690602001909291905050506138ce565b6040518082815260200191505060405180910390f35b61133a6004803603602081101561130e57600080fd5b81019080803573ffffffffffffffffffffffffffffffffffffffff169060200190929190505050613955565b005b611344613b09565b6040518082815260200191505060405180910390f35b61139c6004803603602081101561137057600080fd5b81019080803573ffffffffffffffffffffffffffffffffffffffff169060200190929190505050613b2d565b6040518083151581526020018281526020019250505060405180910390f35b6113fd600480360360208110156113d157600080fd5b81019080803573ffffffffffffffffffffffffffffffffffffffff169060200190929190505050613bd1565b005b6114416004803603602081101561141557600080fd5b81019080803573ffffffffffffffffffffffffffffffffffffffff169060200190929190505050613de1565b6040518082815260200191505060405180910390f35b6114836004803603602081101561146d57600080fd5b8101908080359060200190929190505050613e2a565b005b6114c76004803603602081101561149b57600080fd5b81019080803573ffffffffffffffffffffffffffffffffffffffff169060200190929190505050613eea565b005b6114f5600480360360208110156114df57600080fd5b810190808035906020019092919050505061409e565b005b606060038054600181600116156101000203166002900480601f01602080910402602001604051908101604052809291908181526020018280546001816001161561010002031660029004801561158f5780601f106115645761010080835404028352916020019161158f565b820191906000526020600020905b81548152906001019060200180831161157257829003601f168201915b5050505050905090565b60085481565b60006115b36115ac614355565b848461435d565b6001905092915050565b7fd4e0807919e2b1ad2d101a8010f38574b7a50a04293f99385e3bbe6dacd4576181565b6000806000905060005b60108054905081101561168e57611681600b60006010848154811061160c57fe5b9060005260206000200160009054906101000a900473ffffffffffffffffffffffffffffffffffffffff1673ffffffffffffffffffffffffffffffffffffffff1673ffffffffffffffffffffffffffffffffffffffff168152602001908152602001600020548361429890919063ffffffff16565b91506001810190506115eb565b508091505090565b6000806000905060005b600a8054905081101561174357611736600c6000600a84815481106116c157fe5b9060005260206000200160009054906101000a900473ffffffffffffffffffffffffffffffffffffffff1673ffffffffffffffffffffffffffffffffffffffff1673ffffffffffffffffffffffffffffffffffffffff168152602001908152602001600020548361429890919063ffffffff16565b91506001810190506116a0565b508091505090565b7f2db9fd3d099848027c2383d0a083396f6c41510d7acfd92adc99b6cffcf31e9681565b611777614355565b73ffffffffffffffffffffffffffffffffffffffff16600560019054906101000a900473ffffffffffffffffffffffffffffffffffffffff1673ffffffffffffffffffffffffffffffffffffffff1614611839576040517f08c379a00000000000000000000000000000000000000000000000000000000081526004018080602001828103825260208152602001807f4f776e61626c653a2063616c6c6572206973206e6f7420746865206f776e657281525060200191505060405180910390fd5b80600960006101000a81548160ff02191690831515021790555050565b61185e614355565b73ffffffffffffffffffffffffffffffffffffffff16600560019054906101000a900473ffffffffffffffffffffffffffffffffffffffff1673ffffffffffffffffffffffffffffffffffffffff1614611920576040517f08c379a00000000000000000000000000000000000000000000000000000000081526004018080602001828103825260208152602001807f4f776e61626c653a2063616c6c6572206973206e6f7420746865206f776e657281525060200191505060405180910390fd5b61192d6000801b826137f0565b50565b6000600254905090565b600960009054906101000a900460ff16156119bd576040517f08c379a00000000000000000000000000000000000000000000000000000000081526004018080602001828103825260128152602001807f436f6e747261637420697320506175736564000000000000000000000000000081525060200191505060405180910390fd5b600f60009054906101000a900460ff1615611a40576040517f08c379a000000000000000000000000000000000000000000000000000000000815260040180806020018281038252601f8152602001807f5374616b696e67206973206e6f742063757272656e746c79206163746976650081525060200191505060405180910390fd5b6000600b60003373ffffffffffffffffffffffffffffffffffffffff1673ffffffffffffffffffffffffffffffffffffffff168152602001908152602001600020541415611a9257611a9133613955565b5b611ae481600b60003373ffffffffffffffffffffffffffffffffffffffff1673ffffffffffffffffffffffffffffffffffffffff1681526020019081526020016000205461429890919063ffffffff16565b600b60003373ffffffffffffffffffffffffffffffffffffffff1673ffffffffffffffffffffffffffffffffffffffff16815260200190815260200160002081905550600e54600b60003373ffffffffffffffffffffffffffffffffffffffff1673ffffffffffffffffffffffffffffffffffffffff168152602001908152602001600020541115611bde576040517f08c379a000000000000000000000000000000000000000000000000000000000815260040180806020018281038252601e8152602001807f43616e6e6f74207374616b65206d6f7265207468616e20616c6c6f776564000081525060200191505060405180910390fd5b611be83382614554565b50565b6000600c60008373ffffffffffffffffffffffffffffffffffffffff1673ffffffffffffffffffffffffffffffffffffffff168152602001908152602001600020549050919050565b6000611c41848484614718565b611d0284611c4d614355565b611cfd8560405180606001604052806028815260200161528560289139600160008b73ffffffffffffffffffffffffffffffffffffffff1673ffffffffffffffffffffffffffffffffffffffff1681526020019081526020016000206000611cb3614355565b73ffffffffffffffffffffffffffffffffffffffff1673ffffffffffffffffffffffffffffffffffffffff168152602001908152602001600020546149d99092919063ffffffff16565b61435d565b600190509392505050565b600060066000838152602001908152602001600020600201549050919050565b6000611d3c6000801b83612daa565b9050919050565b611d6a6006600084815260200190815260200160002060020154611d65614355565b612daa565b611dbf576040517f08c379a000000000000000000000000000000000000000000000000000000000815260040180806020018281038252602f815260200180615196602f913960400191505060405180910390fd5b611dc98282614a99565b5050565b6000600560009054906101000a900460ff16905090565b7ff69f1ff8a940f330c338fd491ff074aa19c1961590f8859772f10fcc291ae7f881565b611e10614355565b73ffffffffffffffffffffffffffffffffffffffff168173ffffffffffffffffffffffffffffffffffffffff1614611e93576040517f08c379a000000000000000000000000000000000000000000000000000000000815260040180806020018281038252602f81526020018061533c602f913960400191505060405180910390fd5b611e9d8282614b2d565b5050565b6000611f4a611eae614355565b84611f458560016000611ebf614355565b73ffffffffffffffffffffffffffffffffffffffff1673ffffffffffffffffffffffffffffffffffffffff16815260200190815260200160002060008973ffffffffffffffffffffffffffffffffffffffff1673ffffffffffffffffffffffffffffffffffffffff1681526020019081526020016000205461429890919063ffffffff16565b61435d565b6001905092915050565b601260009054906101000a900460ff1615611fd7576040517f08c379a000000000000000000000000000000000000000000000000000000000815260040180806020018281038252601e8152602001807f566f74696e67206973206e6f742063757272656e746c7920616374697665000081525060200191505060405180910390fd5b600960009054906101000a900460ff161561205a576040517f08c379a00000000000000000000000000000000000000000000000000000000081526004018080602001828103825260128152602001807f436f6e747261637420697320506175736564000000000000000000000000000081525060200191505060405180910390fd5b6120ac81601160003373ffffffffffffffffffffffffffffffffffffffff1673ffffffffffffffffffffffffffffffffffffffff16815260200190815260200160002054614bc190919063ffffffff16565b601160003373ffffffffffffffffffffffffffffffffffffffff1673ffffffffffffffffffffffffffffffffffffffff168152602001908152602001600020819055506000601160003373ffffffffffffffffffffffffffffffffffffffff1673ffffffffffffffffffffffffffffffffffffffff1681526020019081526020016000205414156121415761214033612b0b565b5b61214b3382614c0b565b50565b600061217a7f2db9fd3d099848027c2383d0a083396f6c41510d7acfd92adc99b6cffcf31e9683612daa565b9050919050565b61218a33611d2d565b6121fc576040517f08c379a00000000000000000000000000000000000000000000000000000000081526004018080602001828103825260158152602001807f5265737472696374656420746f2061646d696e732e000000000000000000000081525060200191505060405180910390fd5b6122267f2db9fd3d099848027c2383d0a083396f6c41510d7acfd92adc99b6cffcf31e9682611d43565b50565b6000600b60008373ffffffffffffffffffffffffffffffffffffffff1673ffffffffffffffffffffffffffffffffffffffff168152602001908152602001600020549050919050565b600960009054906101000a900460ff16156122f5576040517f08c379a00000000000000000000000000000000000000000000000000000000081526004018080602001828103825260128152602001807f436f6e747261637420697320506175736564000000000000000000000000000081525060200191505060405180910390fd5b61231f7faefed3c793bd09b4149c8808808972d38ea174a399a9d9296e207ec18ecd964333612daa565b61232857600080fd5b6123323382614554565b50565b600960009054906101000a900460ff16156123b8576040517f08c379a00000000000000000000000000000000000000000000000000000000081526004018080602001828103825260128152602001807f436f6e747261637420697320506175736564000000000000000000000000000081525060200191505060405180910390fd5b6123e27f8c342c7aca7f35847406e6353e35c5762132fa3e958179931981d120af75dfb233612daa565b6123eb57600080fd5b6123f58282614c0b565b5050565b7f7308377bbcfee4c643b62e55a600f0c1ee294f1d8949667b05bfef816828e28481565b600960009054906101000a900460ff1681565b601260009054906101000a900460ff1681565b600d5481565b600960009054906101000a900460ff16156124cc576040517f08c379a00000000000000000000000000000000000000000000000000000000081526004018080602001828103825260128152602001807f436f6e747261637420697320506175736564000000000000000000000000000081525060200191505060405180910390fd5b600f60009054906101000a900460ff161561254f576040517f08c379a000000000000000000000000000000000000000000000000000000000815260040180806020018281038252601f8152602001807f5374616b696e67206973206e6f742063757272656e746c79206163746976650081525060200191505060405180910390fd5b6125797fd4e0807919e2b1ad2d101a8010f38574b7a50a04293f99385e3bbe6dacd4576133612daa565b61258257600080fd5b60005b600a80549050811015612687576000600a82815481106125a157fe5b9060005260206000200160009054906101000a900473ffffffffffffffffffffffffffffffffffffffff16905060006125d98261387a565b905061262d81600c60008573ffffffffffffffffffffffffffffffffffffffff1673ffffffffffffffffffffffffffffffffffffffff1681526020019081526020016000205461429890919063ffffffff16565b600c60008473ffffffffffffffffffffffffffffffffffffffff1673ffffffffffffffffffffffffffffffffffffffff1681526020019081526020016000208190555061267a8282614c0b565b5050600181019050612585565b50565b612692614355565b73ffffffffffffffffffffffffffffffffffffffff16600560019054906101000a900473ffffffffffffffffffffffffffffffffffffffff1673ffffffffffffffffffffffffffffffffffffffff1614612754576040517f08c379a00000000000000000000000000000000000000000000000000000000081526004018080602001828103825260208152602001807f4f776e61626c653a2063616c6c6572206973206e6f7420746865206f776e657281525060200191505060405180910390fd5b6127616000801b82611d43565b50565b600960009054906101000a900460ff16156127e7576040517f08c379a00000000000000000000000000000000000000000000000000000000081526004018080602001828103825260128152602001807f436f6e747261637420697320506175736564000000000000000000000000000081525060200191505060405180910390fd5b6128117f7308377bbcfee4c643b62e55a600f0c1ee294f1d8949667b05bfef816828e28433612daa565b61281a57600080fd5b80600e8190555050565b60008060008373ffffffffffffffffffffffffffffffffffffffff1673ffffffffffffffffffffffffffffffffffffffff168152602001908152602001600020549050919050565b612874614355565b73ffffffffffffffffffffffffffffffffffffffff16600560019054906101000a900473ffffffffffffffffffffffffffffffffffffffff1673ffffffffffffffffffffffffffffffffffffffff1614612936576040517f08c379a00000000000000000000000000000000000000000000000000000000081526004018080602001828103825260208152602001807f4f776e61626c653a2063616c6c6572206973206e6f7420746865206f776e657281525060200191505060405180910390fd5b600073ffffffffffffffffffffffffffffffffffffffff16600560019054906101000a900473ffffffffffffffffffffffffffffffffffffffff1673ffffffffffffffffffffffffffffffffffffffff167f8be0079c531659141344cd1fd0a4f28419497f9722a3daafe3b4186f6b6457e060405160405180910390a36000600560016101000a81548173ffffffffffffffffffffffffffffffffffffffff021916908373ffffffffffffffffffffffffffffffffffffffff160217905550565b600960009054906101000a900460ff1615612a7a576040517f08c379a00000000000000000000000000000000000000000000000000000000081526004018080602001828103825260128152602001807f436f6e747261637420697320506175736564000000000000000000000000000081525060200191505060405180910390fd5b612aa47faefed3c793bd09b4149c8808808972d38ea174a399a9d9296e207ec18ecd964333612daa565b612aad57600080fd5b612ab78282614554565b5050565b612ae57ff69f1ff8a940f330c338fd491ff074aa19c1961590f8859772f10fcc291ae7f833612daa565b612aee57600080fd5b80601260006101000a81548160ff02191690831515021790555050565b601260009054906101000a900460ff1615612b8e576040517f08c379a000000000000000000000000000000000000000000000000000000000815260040180806020018281038252601e8152602001807f566f74696e67206973206e6f742063757272656e746c7920616374697665000081525060200191505060405180910390fd5b600960009054906101000a900460ff1615612c11576040517f08c379a00000000000000000000000000000000000000000000000000000000081526004018080602001828103825260128152602001807f436f6e747261637420697320506175736564000000000000000000000000000081525060200191505060405180910390fd5b612c3b7ff69f1ff8a940f330c338fd491ff074aa19c1961590f8859772f10fcc291ae7f833612daa565b612c4457600080fd5b600080612c508361332b565b915091508115612d3057601060016010805490500381548110612c6f57fe5b9060005260206000200160009054906101000a900473ffffffffffffffffffffffffffffffffffffffff1660108281548110612ca757fe5b9060005260206000200160006101000a81548173ffffffffffffffffffffffffffffffffffffffff021916908373ffffffffffffffffffffffffffffffffffffffff1602179055506010805480612cfa57fe5b6001900381819060005260206000200160006101000a81549073ffffffffffffffffffffffffffffffffffffffff021916905590555b505050565b612d426000801b33611e08565b565b6000600560019054906101000a900473ffffffffffffffffffffffffffffffffffffffff16905090565b6000600754905090565b6000612da28260066000868152602001908152602001600020600001614dd290919063ffffffff16565b905092915050565b6000612dd48260066000868152602001908152602001600020600001614dec90919063ffffffff16565b905092915050565b600960009054906101000a900460ff1615612e5f576040517f08c379a00000000000000000000000000000000000000000000000000000000081526004018080602001828103825260128152602001807f436f6e747261637420697320506175736564000000000000000000000000000081525060200191505060405180910390fd5b600f60009054906101000a900460ff1615612ee2576040517f08c379a000000000000000000000000000000000000000000000000000000000815260040180806020018281038252601f8152602001807f5374616b696e67206973206e6f742063757272656e746c79206163746976650081525060200191505060405180910390fd5b612f3481600b60003373ffffffffffffffffffffffffffffffffffffffff1673ffffffffffffffffffffffffffffffffffffffff16815260200190815260200160002054614bc190919063ffffffff16565b600b60003373ffffffffffffffffffffffffffffffffffffffff1673ffffffffffffffffffffffffffffffffffffffff168152602001908152602001600020819055506000600b60003373ffffffffffffffffffffffffffffffffffffffff1673ffffffffffffffffffffffffffffffffffffffff168152602001908152602001600020541415612fc957612fc8336134ea565b5b612fd33382614c0b565b50565b606060048054600181600116156101000203166002900480601f01602080910402602001604051908101604052809291908181526020018280546001816001161561010002031660029004801561306e5780601f106130435761010080835404028352916020019161306e565b820191906000526020600020905b81548152906001019060200180831161305157829003601f168201915b5050505050905090565b6130a27f7308377bbcfee4c643b62e55a600f0c1ee294f1d8949667b05bfef816828e28433612daa565b6130ab57600080fd5b80600f60006101000a81548160ff02191690831515021790555050565b6130d133611d2d565b613143576040517f08c379a00000000000000000000000000000000000000000000000000000000081526004018080602001828103825260158152602001807f5265737472696374656420746f2061646d696e732e000000000000000000000081525060200191505060405180910390fd5b61316d7f2db9fd3d099848027c2383d0a083396f6c41510d7acfd92adc99b6cffcf31e96826137f0565b50565b600960009054906101000a900460ff16156131f3576040517f08c379a00000000000000000000000000000000000000000000000000000000081526004018080602001828103825260128152602001807f436f6e747261637420697320506175736564000000000000000000000000000081525060200191505060405180910390fd5b61321d7f8c342c7aca7f35847406e6353e35c5762132fa3e958179931981d120af75dfb233612daa565b61322657600080fd5b6132303382614c0b565b50565b6000801b81565b60006132fd613247614355565b846132f8856040518060600160405280602581526020016153176025913960016000613271614355565b73ffffffffffffffffffffffffffffffffffffffff1673ffffffffffffffffffffffffffffffffffffffff16815260200190815260200160002060008a73ffffffffffffffffffffffffffffffffffffffff1673ffffffffffffffffffffffffffffffffffffffff168152602001908152602001600020546149d99092919063ffffffff16565b61435d565b6001905092915050565b7f8c342c7aca7f35847406e6353e35c5762132fa3e958179931981d120af75dfb281565b60008060005b6010805490508110156133c1576010818154811061334b57fe5b9060005260206000200160009054906101000a900473ffffffffffffffffffffffffffffffffffffffff1673ffffffffffffffffffffffffffffffffffffffff168473ffffffffffffffffffffffffffffffffffffffff1614156133b65760018192509250506133ca565b600181019050613331565b50600080915091505b915091565b60006133e36133dc614355565b8484614718565b6001905092915050565b600f60009054906101000a900460ff1681565b600960009054906101000a900460ff1615613483576040517f08c379a00000000000000000000000000000000000000000000000000000000081526004018080602001828103825260128152602001807f436f6e747261637420697320506175736564000000000000000000000000000081525060200191505060405180910390fd5b6134ad7fea4defabeb90fa1e79f929d6c8d482fee8a115926a592b79634d39a67cce3b6233612daa565b6134b657600080fd5b8060078190555050565b7faefed3c793bd09b4149c8808808972d38ea174a399a9d9296e207ec18ecd964381565b600e5481565b600960009054906101000a900460ff161561356d576040517f08c379a00000000000000000000000000000000000000000000000000000000081526004018080602001828103825260128152602001807f436f6e747261637420697320506175736564000000000000000000000000000081525060200191505060405180910390fd5b600f60009054906101000a900460ff16156135f0576040517f08c379a000000000000000000000000000000000000000000000000000000000815260040180806020018281038252601f8152602001807f5374616b696e67206973206e6f742063757272656e746c79206163746976650081525060200191505060405180910390fd5b61361a7f7308377bbcfee4c643b62e55a600f0c1ee294f1d8949667b05bfef816828e28433612daa565b61362357600080fd5b60008061362f83613b2d565b91509150811561370f57600a6001600a80549050038154811061364e57fe5b9060005260206000200160009054906101000a900473ffffffffffffffffffffffffffffffffffffffff16600a828154811061368657fe5b9060005260206000200160006101000a81548173ffffffffffffffffffffffffffffffffffffffff021916908373ffffffffffffffffffffffffffffffffffffffff160217905550600a8054806136d957fe5b6001900381819060005260206000200160006101000a81549073ffffffffffffffffffffffffffffffffffffffff021916905590555b505050565b6000806000905060005b600a805490508110156137c1576137b4600b6000600a848154811061373f57fe5b9060005260206000200160009054906101000a900473ffffffffffffffffffffffffffffffffffffffff1673ffffffffffffffffffffffffffffffffffffffff1673ffffffffffffffffffffffffffffffffffffffff168152602001908152602001600020548361429890919063ffffffff16565b915060018101905061371e565b508091505090565b60006137e960066000848152602001908152602001600020600001614e1c565b9050919050565b6138176006600084815260200190815260200160002060020154613812614355565b612daa565b61386c576040517f08c379a00000000000000000000000000000000000000000000000000000000081526004018080602001828103825260308152602001806152556030913960400191505060405180910390fd5b6138768282614b2d565b5050565b6000600d54600b60008473ffffffffffffffffffffffffffffffffffffffff1673ffffffffffffffffffffffffffffffffffffffff16815260200190815260200160002054816138c657fe5b049050919050565b6000600160008473ffffffffffffffffffffffffffffffffffffffff1673ffffffffffffffffffffffffffffffffffffffff16815260200190815260200160002060008373ffffffffffffffffffffffffffffffffffffffff1673ffffffffffffffffffffffffffffffffffffffff16815260200190815260200160002054905092915050565b600960009054906101000a900460ff16156139d8576040517f08c379a00000000000000000000000000000000000000000000000000000000081526004018080602001828103825260128152602001807f436f6e747261637420697320506175736564000000000000000000000000000081525060200191505060405180910390fd5b600f60009054906101000a900460ff1615613a5b576040517f08c379a000000000000000000000000000000000000000000000000000000000815260040180806020018281038252601f8152602001807f5374616b696e67206973206e6f742063757272656e746c79206163746976650081525060200191505060405180910390fd5b613a857f7308377bbcfee4c643b62e55a600f0c1ee294f1d8949667b05bfef816828e28433612daa565b613a8e57600080fd5b6000613a9982613b2d565b50905080613b0557600a829080600181540180825580915050600190039060005260206000200160009091909190916101000a81548173ffffffffffffffffffffffffffffffffffffffff021916908373ffffffffffffffffffffffffffffffffffffffff1602179055505b5050565b7fea4defabeb90fa1e79f929d6c8d482fee8a115926a592b79634d39a67cce3b6281565b60008060005b600a80549050811015613bc357600a8181548110613b4d57fe5b9060005260206000200160009054906101000a900473ffffffffffffffffffffffffffffffffffffffff1673ffffffffffffffffffffffffffffffffffffffff168473ffffffffffffffffffffffffffffffffffffffff161415613bb8576001819250925050613bcc565b600181019050613b33565b50600080915091505b915091565b613bd9614355565b73ffffffffffffffffffffffffffffffffffffffff16600560019054906101000a900473ffffffffffffffffffffffffffffffffffffffff1673ffffffffffffffffffffffffffffffffffffffff1614613c9b576040517f08c379a00000000000000000000000000000000000000000000000000000000081526004018080602001828103825260208152602001807f4f776e61626c653a2063616c6c6572206973206e6f7420746865206f776e657281525060200191505060405180910390fd5b600073ffffffffffffffffffffffffffffffffffffffff168173ffffffffffffffffffffffffffffffffffffffff161415613d21576040517f08c379a00000000000000000000000000000000000000000000000000000000081526004018080602001828103825260268152602001806151e76026913960400191505060405180910390fd5b8073ffffffffffffffffffffffffffffffffffffffff16600560019054906101000a900473ffffffffffffffffffffffffffffffffffffffff1673ffffffffffffffffffffffffffffffffffffffff167f8be0079c531659141344cd1fd0a4f28419497f9722a3daafe3b4186f6b6457e060405160405180910390a380600560016101000a81548173ffffffffffffffffffffffffffffffffffffffff021916908373ffffffffffffffffffffffffffffffffffffffff16021790555050565b6000601160008373ffffffffffffffffffffffffffffffffffffffff1673ffffffffffffffffffffffffffffffffffffffff168152602001908152602001600020549050919050565b600960009054906101000a900460ff1615613ead576040517f08c379a00000000000000000000000000000000000000000000000000000000081526004018080602001828103825260128152602001807f436f6e747261637420697320506175736564000000000000000000000000000081525060200191505060405180910390fd5b613ed77f7308377bbcfee4c643b62e55a600f0c1ee294f1d8949667b05bfef816828e28433612daa565b613ee057600080fd5b80600d8190555050565b601260009054906101000a900460ff1615613f6d576040517f08c379a000000000000000000000000000000000000000000000000000000000815260040180806020018281038252601e8152602001807f566f74696e67206973206e6f742063757272656e746c7920616374697665000081525060200191505060405180910390fd5b600960009054906101000a900460ff1615613ff0576040517f08c379a00000000000000000000000000000000000000000000000000000000081526004018080602001828103825260128152602001807f436f6e747261637420697320506175736564000000000000000000000000000081525060200191505060405180910390fd5b61401a7ff69f1ff8a940f330c338fd491ff074aa19c1961590f8859772f10fcc291ae7f833612daa565b61402357600080fd5b600061402e8261332b565b5090508061409a576010829080600181540180825580915050600190039060005260206000200160009091909190916101000a81548173ffffffffffffffffffffffffffffffffffffffff021916908373ffffffffffffffffffffffffffffffffffffffff1602179055505b5050565b601260009054906101000a900460ff1615614121576040517f08c379a000000000000000000000000000000000000000000000000000000000815260040180806020018281038252601e8152602001807f566f74696e67206973206e6f742063757272656e746c7920616374697665000081525060200191505060405180910390fd5b600960009054906101000a900460ff16156141a4576040517f08c379a00000000000000000000000000000000000000000000000000000000081526004018080602001828103825260128152602001807f436f6e747261637420697320506175736564000000000000000000000000000081525060200191505060405180910390fd5b6141ae3382614554565b6000601160003373ffffffffffffffffffffffffffffffffffffffff1673ffffffffffffffffffffffffffffffffffffffff168152602001908152602001600020541415614200576141ff33613eea565b5b61425281601160003373ffffffffffffffffffffffffffffffffffffffff1673ffffffffffffffffffffffffffffffffffffffff1681526020019081526020016000205461429890919063ffffffff16565b601160003373ffffffffffffffffffffffffffffffffffffffff1673ffffffffffffffffffffffffffffffffffffffff1681526020019081526020016000208190555050565b600080828401905083811015614316576040517f08c379a000000000000000000000000000000000000000000000000000000000815260040180806020018281038252601b8152602001807f536166654d6174683a206164646974696f6e206f766572666c6f77000000000081525060200191505060405180910390fd5b8091505092915050565b505050565b600061434d836000018373ffffffffffffffffffffffffffffffffffffffff1660001b614e31565b905092915050565b600033905090565b600073ffffffffffffffffffffffffffffffffffffffff168373ffffffffffffffffffffffffffffffffffffffff1614156143e3576040517f08c379a00000000000000000000000000000000000000000000000000000000081526004018080602001828103825260248152602001806152f36024913960400191505060405180910390fd5b600073ffffffffffffffffffffffffffffffffffffffff168273ffffffffffffffffffffffffffffffffffffffff161415614469576040517f08c379a000000000000000000000000000000000000000000000000000000000815260040180806020018281038252602281526020018061520d6022913960400191505060405180910390fd5b80600160008573ffffffffffffffffffffffffffffffffffffffff1673ffffffffffffffffffffffffffffffffffffffff16815260200190815260200160002060008473ffffffffffffffffffffffffffffffffffffffff1673ffffffffffffffffffffffffffffffffffffffff168152602001908152602001600020819055508173ffffffffffffffffffffffffffffffffffffffff168373ffffffffffffffffffffffffffffffffffffffff167f8c5be1e5ebec7d5bd14f71427d1e84f3dd0314c0f7b2291e5b200ac8c7c3b925836040518082815260200191505060405180910390a3505050565b600073ffffffffffffffffffffffffffffffffffffffff168273ffffffffffffffffffffffffffffffffffffffff1614156145da576040517f08c379a00000000000000000000000000000000000000000000000000000000081526004018080602001828103825260218152602001806152ad6021913960400191505060405180910390fd5b6145e682600083614ea1565b614651816040518060600160405280602281526020016151c5602291396000808673ffffffffffffffffffffffffffffffffffffffff1673ffffffffffffffffffffffffffffffffffffffff168152602001908152602001600020546149d99092919063ffffffff16565b6000808473ffffffffffffffffffffffffffffffffffffffff1673ffffffffffffffffffffffffffffffffffffffff168152602001908152602001600020819055506146a881600254614bc190919063ffffffff16565b600281905550600073ffffffffffffffffffffffffffffffffffffffff168273ffffffffffffffffffffffffffffffffffffffff167fddf252ad1be2c89b69c2b068fc378daa952ba7f163c4a11628f55a4df523b3ef836040518082815260200191505060405180910390a35050565b600073ffffffffffffffffffffffffffffffffffffffff168373ffffffffffffffffffffffffffffffffffffffff16141561479e576040517f08c379a00000000000000000000000000000000000000000000000000000000081526004018080602001828103825260258152602001806152ce6025913960400191505060405180910390fd5b600073ffffffffffffffffffffffffffffffffffffffff168273ffffffffffffffffffffffffffffffffffffffff161415614824576040517f08c379a00000000000000000000000000000000000000000000000000000000081526004018080602001828103825260238152602001806151736023913960400191505060405180910390fd5b61482f838383614ea1565b61489a8160405180606001604052806026815260200161522f602691396000808773ffffffffffffffffffffffffffffffffffffffff1673ffffffffffffffffffffffffffffffffffffffff168152602001908152602001600020546149d99092919063ffffffff16565b6000808573ffffffffffffffffffffffffffffffffffffffff1673ffffffffffffffffffffffffffffffffffffffff1681526020019081526020016000208190555061492d816000808573ffffffffffffffffffffffffffffffffffffffff1673ffffffffffffffffffffffffffffffffffffffff1681526020019081526020016000205461429890919063ffffffff16565b6000808473ffffffffffffffffffffffffffffffffffffffff1673ffffffffffffffffffffffffffffffffffffffff168152602001908152602001600020819055508173ffffffffffffffffffffffffffffffffffffffff168373ffffffffffffffffffffffffffffffffffffffff167fddf252ad1be2c89b69c2b068fc378daa952ba7f163c4a11628f55a4df523b3ef836040518082815260200191505060405180910390a3505050565b6000838311158290614a86576040517f08c379a00000000000000000000000000000000000000000000000000000000081526004018080602001828103825283818151815260200191508051906020019080838360005b83811015614a4b578082015181840152602081019050614a30565b50505050905090810190601f168015614a785780820380516001836020036101000a031916815260200191505b509250505060405180910390fd5b5060008385039050809150509392505050565b614ac1816006600085815260200190815260200160002060000161432590919063ffffffff16565b15614b2957614ace614355565b73ffffffffffffffffffffffffffffffffffffffff168173ffffffffffffffffffffffffffffffffffffffff16837f2f8788117e7eff1d82e926ec794901d17c78024a50270940304540a733656f0d60405160405180910390a45b5050565b614b558160066000858152602001908152602001600020600001614f5b90919063ffffffff16565b15614bbd57614b62614355565b73ffffffffffffffffffffffffffffffffffffffff168173ffffffffffffffffffffffffffffffffffffffff16837ff6391f5c32d9c69d2a47ea670b442974b53935d1edc7fd64eb21e047a839171b60405160405180910390a45b5050565b6000614c0383836040518060400160405280601e81526020017f536166654d6174683a207375627472616374696f6e206f766572666c6f7700008152506149d9565b905092915050565b600073ffffffffffffffffffffffffffffffffffffffff168273ffffffffffffffffffffffffffffffffffffffff161415614cae576040517f08c379a000000000000000000000000000000000000000000000000000000000815260040180806020018281038252601f8152602001807f45524332303a206d696e7420746f20746865207a65726f20616464726573730081525060200191505060405180910390fd5b614cba60008383614ea1565b614ccf8160025461429890919063ffffffff16565b600281905550614d26816000808573ffffffffffffffffffffffffffffffffffffffff1673ffffffffffffffffffffffffffffffffffffffff1681526020019081526020016000205461429890919063ffffffff16565b6000808473ffffffffffffffffffffffffffffffffffffffff1673ffffffffffffffffffffffffffffffffffffffff168152602001908152602001600020819055508173ffffffffffffffffffffffffffffffffffffffff16600073ffffffffffffffffffffffffffffffffffffffff167fddf252ad1be2c89b69c2b068fc378daa952ba7f163c4a11628f55a4df523b3ef836040518082815260200191505060405180910390a35050565b6000614de18360000183614f8b565b60001c905092915050565b6000614e14836000018373ffffffffffffffffffffffffffffffffffffffff1660001b61500e565b905092915050565b6000614e2a82600001615031565b9050919050565b6000614e3d838361500e565b614e96578260000182908060018154018082558091505060019003906000526020600020016000909190919091505582600001805490508360010160008481526020019081526020016000208190555060019050614e9b565b600090505b92915050565b614eac838383614320565b600073ffffffffffffffffffffffffffffffffffffffff168373ffffffffffffffffffffffffffffffffffffffff161415614f5657600754614efe82614ef0611930565b61429890919063ffffffff16565b1115614f55576040517f08c379a000000000000000000000000000000000000000000000000000000000815260040180806020018281038252602681526020018061512b6026913960400191505060405180910390fd5b5b505050565b6000614f83836000018373ffffffffffffffffffffffffffffffffffffffff1660001b615042565b905092915050565b600081836000018054905011614fec576040517f08c379a00000000000000000000000000000000000000000000000000000000081526004018080602001828103825260228152602001806151516022913960400191505060405180910390fd5b826000018281548110614ffb57fe5b9060005260206000200154905092915050565b600080836001016000848152602001908152602001600020541415905092915050565b600081600001805490509050919050565b6000808360010160008481526020019081526020016000205490506000811461511e576000600182039050600060018660000180549050039050600086600001828154811061508d57fe5b90600052602060002001549050808760000184815481106150aa57fe5b90600052602060002001819055506001830187600101600083815260200190815260200160002081905550866000018054806150e257fe5b60019003818190600052602060002001600090559055866001016000878152602001908152602001600020600090556001945050505050615124565b60009150505b9291505056fe5468657265206973206120537570706c792043617020647564652e20436f6d65206f6e2e2e2e456e756d657261626c655365743a20696e646578206f7574206f6620626f756e647345524332303a207472616e7366657220746f20746865207a65726f2061646472657373416363657373436f6e74726f6c3a2073656e646572206d75737420626520616e2061646d696e20746f206772616e7445524332303a206275726e20616d6f756e7420657863656564732062616c616e63654f776e61626c653a206e6577206f776e657220697320746865207a65726f206164647265737345524332303a20617070726f766520746f20746865207a65726f206164647265737345524332303a207472616e7366657220616d6f756e7420657863656564732062616c616e6365416363657373436f6e74726f6c3a2073656e646572206d75737420626520616e2061646d696e20746f207265766f6b6545524332303a207472616e7366657220616d6f756e74206578636565647320616c6c6f77616e636545524332303a206275726e2066726f6d20746865207a65726f206164647265737345524332303a207472616e736665722066726f6d20746865207a65726f206164647265737345524332303a20617070726f76652066726f6d20746865207a65726f206164647265737345524332303a2064656372656173656420616c6c6f77616e63652062656c6f77207a65726f416363657373436f6e74726f6c3a2063616e206f6e6c792072656e6f756e636520726f6c657320666f722073656c66a26469706673582212207b52c9c88ad99f0119a656e304a81766f04af4d216c14b5a75891894f16dc6cd64736f6c634300060c00335468657265206973206120537570706c792043617020647564652e20436f6d65206f6e2e2e2e",
  "immutableReferences": {},
  "source": "// SPDX-License-Identifier: MIT\n\npragma solidity ^0.6.0;\n\nimport \"./ERC20.sol\";\nimport \"../../access/Ownable.sol\";\nimport \"../../access/AccessControl.sol\";\n\ncontract FMTAToken is ERC20, Ownable, AccessControl {\n    \n   //------Token Vars-------------\n   \n    uint256 private _cap = 5e25;\n    uint256 public _premine;\n    bytes32 public constant _MINTER = keccak256(\"_MINTER\");\n    bytes32 public constant _BURNER = keccak256(\"_BURNER\");\n    bytes32 public constant _DISTRIBUTOR = keccak256(\"_DISTRIBUTOR\");\n    bytes32 public constant USER_ROLE = keccak256(\"USER\");\n    bytes32 public constant _STAKING = keccak256(\"_STAKING\");\n    bytes32 public constant _VOTING = keccak256(\"_VOTING\");\n    bytes32 public constant _SUPPLY = keccak256(\"_SUPPLY\");\n    bool public paused;\n    \n    //-------Staking Vars-------------------\n    \n    address[] internal stakeholders;\n    mapping(address => uint256) internal stakes;\n    mapping(address => uint256) internal rewards;\n    uint256 public stakeCalc = 1000;\n    uint256 public stakeCap = 3e22;\n    bool public stakingOff = true;\n    \n    //--------Voting Vars-------------------\n    \n    address[] internal voters;\n    mapping(address => uint256) internal votes;\n    bool public votingOff = true;\n    \n    \n    //------Token/Admin Constructor---------\n    \n    constructor() public {\n        _premine = 7.5e24;\n        _mint(msg.sender, _premine);\n        _setupRole(DEFAULT_ADMIN_ROLE, msg.sender);\n        _setRoleAdmin(USER_ROLE, DEFAULT_ADMIN_ROLE);\n    }\n    \n    //------Token Modifier------------------\n    \n    modifier pause() {\n        require(!paused, \"Contract is Paused\");\n        _;\n    }\n    \n    //------Staking Modifier----------------\n    \n    modifier stakeToggle() {\n        require(!stakingOff, \"Staking is not currently active\");\n        _;\n    }\n    \n    //------Voting Modifier-----------------\n    \n    modifier voteToggle() {\n        require(!votingOff, \"Voting is not currently active\");\n        _;\n    }\n    \n    //-------Admin Modifiers----------------\n    \n       modifier onlyAdmin() {\n        require(isAdmin(msg.sender), \"Restricted to admins.\");\n        _;\n    }\n\n    modifier onlyUser() {\n        require(isUser(msg.sender), \"Restricted to users.\");\n        _;\n    }\n    \n    //------Token Functions-----------------\n    \n    function mintTo(address _to, uint _amount) public pause {\n        require(hasRole(_MINTER, msg.sender));\n        _mint(_to, _amount);\n    }\n    \n    function mint( uint _amount) public pause {\n        require(hasRole(_MINTER, msg.sender));\n        _mint(msg.sender, _amount);\n    }\n    \n    function burn(uint _amount) public pause { \n        require(hasRole(_BURNER, msg.sender));\n        _burn(msg.sender,  _amount);\n    }\n    \n    function burnFrom(address _from, uint _amount) public pause {\n        require(hasRole(_BURNER, msg.sender));\n        _burn(_from, _amount);\n    }\n\n    //----------Supply Cap------------------\n\n    function setSupplyCap(uint _supplyCap) public pause {\n        require(hasRole(_SUPPLY, msg.sender));\n        _cap = _supplyCap;\n    }\n    \n    function supplyCap() public view returns (uint256) {\n        return _cap;\n    }\n\n    function _beforeTokenTransfer(address from, address to, uint256 amount) internal virtual override {\n        super._beforeTokenTransfer(from, to, amount);\n\n        if (from == address(0)) { \n            require(totalSupply().add(amount) <= _cap, \"There is a Supply Cap dude. Come on...\");\n        }\n    }\n    \n    function setPaused(bool _paused) public onlyOwner {\n        paused = _paused;\n    }\n    \n    //-------Staking Functions--------------\n    \n    function createStake(uint256 _stake) public pause stakeToggle {\n        if(stakes[msg.sender] == 0) addStakeholder(msg.sender);\n        stakes[msg.sender] = stakes[msg.sender].add(_stake);\n        require(stakes[msg.sender] <= stakeCap, \"Cannot stake more than allowed\");\n        _burn(msg.sender, _stake);\n    }\n    \n    function removeStake(uint256 _stake) public pause stakeToggle {\n        stakes[msg.sender] = stakes[msg.sender].sub(_stake);\n        if(stakes[msg.sender] == 0) removeStakeholder(msg.sender);\n        _mint(msg.sender, _stake);\n    }\n    \n    function stakeOf (address _stakeholder) public view returns(uint256) {\n        return stakes[_stakeholder];\n    }\n    \n    function totalStakes() public view returns(uint256) {\n        uint256 _totalStakes = 0;\n        for (uint256 s = 0; s < stakeholders.length; s += 1) {\n            _totalStakes = _totalStakes.add(stakes[stakeholders[s]]);\n        }\n        \n        return _totalStakes;\n    }\n    \n    function isStakeholder(address _address) public view returns(bool, uint256) {\n        for (uint256 s = 0; s < stakeholders.length; s += 1) {\n            if (_address == stakeholders[s]) return (true, s);\n        }\n        \n        return (false, 0);\n    }\n    \n    function addStakeholder(address _stakeholder) public pause stakeToggle {\n        require(hasRole(_STAKING, msg.sender));\n        (bool _isStakeholder, ) = isStakeholder(_stakeholder);\n        if(!_isStakeholder) stakeholders.push(_stakeholder);\n    }\n    \n    function removeStakeholder(address _stakeholder) public pause stakeToggle {\n        require(hasRole(_STAKING, msg.sender));\n        (bool _isStakeholder, uint256 s) = isStakeholder(_stakeholder);\n        if(_isStakeholder){\n            stakeholders[s] = stakeholders[stakeholders.length - 1];\n            stakeholders.pop();\n        }\n    }\n    \n    function rewardOf(address _stakeholder) public view returns(uint256) {\n        return rewards[_stakeholder];\n    }\n    \n    function totalRewards() public view returns(uint256) {\n        uint256 _totalRewards = 0;\n        for (uint256 s = 0; s < stakeholders.length; s += 1){\n            _totalRewards = _totalRewards.add(rewards[stakeholders[s]]);\n        }\n        \n        return _totalRewards;\n    }\n    \n    function setStakeCalc(uint _stakeCalc) public pause {\n        require(hasRole(_STAKING, msg.sender));\n        stakeCalc = _stakeCalc;\n    }\n    \n    function setStakeCap(uint _stakeCap) public pause {\n        require(hasRole(_STAKING, msg.sender));\n        stakeCap = _stakeCap;\n    }\n    \n    function calculateReward(address _stakeholder) public view returns(uint256) {\n        return stakes[_stakeholder] / stakeCalc;\n    }\n    \n    function distributeRewards() public pause stakeToggle{\n        require(hasRole(_DISTRIBUTOR, msg.sender));\n        for (uint256 s = 0; s < stakeholders.length; s += 1) {\n            address stakeholder = stakeholders[s];\n            uint256 reward = calculateReward(stakeholder);\n            rewards[stakeholder] = rewards[stakeholder].add(reward);\n            _mint(stakeholder, reward);\n        }\n    }\n    \n    function stakeOff(bool _stakingOff) public {\n        require(hasRole(_STAKING, msg.sender));\n        stakingOff = _stakingOff;\n    }\n    \n    //--------Voting System-----------------------\n    \n    function createVote(uint256 _vote) public voteToggle pause {\n        _burn(msg.sender, _vote);\n        if(votes[msg.sender] == 0) addVoter(msg.sender);\n        votes[msg.sender] = votes[msg.sender].add(_vote);\n    }\n    \n    function removeVote(uint256 _vote) public voteToggle pause {\n        votes[msg.sender] = votes[msg.sender].sub(_vote);\n        if(votes[msg.sender] == 0) removeVoter(msg.sender);\n        _mint(msg.sender, _vote);\n    }\n    \n    function voteOf (address _voter) public view returns(uint256) {\n        return votes[_voter];\n    }\n    \n    function totalVotes() public view returns(uint256) {\n        uint256 _totalVotes = 0;\n        for (uint256 s = 0; s < voters.length; s += 1) {\n            _totalVotes = _totalVotes.add(stakes[voters[s]]);\n        }\n        \n        return _totalVotes;\n    }\n    \n    function isVoter(address _address) public view returns(bool, uint256) {\n        for (uint256 s = 0; s < voters.length; s += 1) {\n            if (_address == voters[s]) return (true, s);\n        }\n        \n        return (false, 0);\n    }\n    \n    function addVoter(address _voter) public voteToggle pause {\n        require(hasRole(_VOTING, msg.sender));\n        (bool _isVoter, ) = isVoter(_voter);\n        if(!_isVoter) voters.push(_voter);\n    }\n    \n    function removeVoter(address _voter) public voteToggle pause {\n        require(hasRole(_VOTING, msg.sender));\n        (bool _isVoter, uint256 s) = isVoter(_voter);\n        if(_isVoter){\n            voters[s] = voters[voters.length - 1];\n            voters.pop();\n        }\n    }\n    \n    function voteOff(bool _votingOff) public {\n        require(hasRole(_VOTING, msg.sender));\n        votingOff = _votingOff;\n    }\n    \n    //--------Admin---------------------------\n   \n    function isAdmin(address account) public virtual view returns (bool) {\n        return hasRole(DEFAULT_ADMIN_ROLE, account);\n    }\n\n    function isUser(address account) public virtual view returns (bool) {\n        return hasRole(USER_ROLE, account);\n    }\n\n    function addUser(address account) public virtual onlyAdmin {\n        grantRole(USER_ROLE, account);\n    }\n\n    function addAdmin(address account) public virtual onlyOwner {\n        grantRole(DEFAULT_ADMIN_ROLE, account);\n    }\n    \n    function removeAdmin(address account) public virtual onlyOwner {\n        revokeRole(DEFAULT_ADMIN_ROLE, account);\n    }\n\n    function removeUser(address account) public virtual onlyAdmin {\n        revokeRole(USER_ROLE, account);\n    }\n\n    function renounceAdmin() public virtual {\n        renounceRole(DEFAULT_ADMIN_ROLE, msg.sender);\n    }\n}\n\n\n\n   \n\n",
  "sourcePath": "/home/hooftly/Projects/FMTA_OG/contracts/token/ERC20/NewToken.sol",
  "compiler": {
    "name": "solc",
    "version": "0.6.12+commit.27d51765.Emscripten.clang"
  },
  "schemaVersion": "3.2.4",
  "updatedAt": "2020-09-06T06:37:10.047Z",
  "networkType": "ethereum",
  "devdoc": {
    "kind": "dev",
    "methods": {
      "allowance(address,address)": {
        "details": "See {IERC20-allowance}."
      },
      "approve(address,uint256)": {
        "details": "See {IERC20-approve}. Requirements: - `spender` cannot be the zero address."
      },
      "balanceOf(address)": {
        "details": "See {IERC20-balanceOf}."
      },
      "decimals()": {
        "details": "Returns the number of decimals used to get its user representation. For example, if `decimals` equals `2`, a balance of `505` tokens should be displayed to a user as `5,05` (`505 / 10 ** 2`). Tokens usually opt for a value of 18, imitating the relationship between Ether and Wei. This is the value {ERC20} uses, unless {_setupDecimals} is called. NOTE: This information is only used for _display_ purposes: it in no way affects any of the arithmetic of the contract, including {IERC20-balanceOf} and {IERC20-transfer}."
      },
      "decreaseAllowance(address,uint256)": {
        "details": "Atomically decreases the allowance granted to `spender` by the caller. This is an alternative to {approve} that can be used as a mitigation for problems described in {IERC20-approve}. Emits an {Approval} event indicating the updated allowance. Requirements: - `spender` cannot be the zero address. - `spender` must have allowance for the caller of at least `subtractedValue`."
      },
      "getRoleAdmin(bytes32)": {
        "details": "Returns the admin role that controls `role`. See {grantRole} and {revokeRole}. To change a role's admin, use {_setRoleAdmin}."
      },
      "getRoleMember(bytes32,uint256)": {
        "details": "Returns one of the accounts that have `role`. `index` must be a value between 0 and {getRoleMemberCount}, non-inclusive. Role bearers are not sorted in any particular way, and their ordering may change at any point. WARNING: When using {getRoleMember} and {getRoleMemberCount}, make sure you perform all queries on the same block. See the following https://forum.openzeppelin.com/t/iterating-over-elements-on-enumerableset-in-openzeppelin-contracts/2296[forum post] for more information."
      },
      "getRoleMemberCount(bytes32)": {
        "details": "Returns the number of accounts that have `role`. Can be used together with {getRoleMember} to enumerate all bearers of a role."
      },
      "grantRole(bytes32,address)": {
        "details": "Grants `role` to `account`. If `account` had not been already granted `role`, emits a {RoleGranted} event. Requirements: - the caller must have ``role``'s admin role."
      },
      "hasRole(bytes32,address)": {
        "details": "Returns `true` if `account` has been granted `role`."
      },
      "increaseAllowance(address,uint256)": {
        "details": "Atomically increases the allowance granted to `spender` by the caller. This is an alternative to {approve} that can be used as a mitigation for problems described in {IERC20-approve}. Emits an {Approval} event indicating the updated allowance. Requirements: - `spender` cannot be the zero address."
      },
      "name()": {
        "details": "Returns the name of the token."
      },
      "owner()": {
        "details": "Returns the address of the current owner."
      },
      "renounceOwnership()": {
        "details": "Leaves the contract without owner. It will not be possible to call `onlyOwner` functions anymore. Can only be called by the current owner. NOTE: Renouncing ownership will leave the contract without an owner, thereby removing any functionality that is only available to the owner."
      },
      "renounceRole(bytes32,address)": {
        "details": "Revokes `role` from the calling account. Roles are often managed via {grantRole} and {revokeRole}: this function's purpose is to provide a mechanism for accounts to lose their privileges if they are compromised (such as when a trusted device is misplaced). If the calling account had been granted `role`, emits a {RoleRevoked} event. Requirements: - the caller must be `account`."
      },
      "revokeRole(bytes32,address)": {
        "details": "Revokes `role` from `account`. If `account` had been granted `role`, emits a {RoleRevoked} event. Requirements: - the caller must have ``role``'s admin role."
      },
      "symbol()": {
        "details": "Returns the symbol of the token, usually a shorter version of the name."
      },
      "totalSupply()": {
        "details": "See {IERC20-totalSupply}."
      },
      "transfer(address,uint256)": {
        "details": "See {IERC20-transfer}. Requirements: - `recipient` cannot be the zero address. - the caller must have a balance of at least `amount`."
      },
      "transferFrom(address,address,uint256)": {
        "details": "See {IERC20-transferFrom}. Emits an {Approval} event indicating the updated allowance. This is not required by the EIP. See the note at the beginning of {ERC20}; Requirements: - `sender` and `recipient` cannot be the zero address. - `sender` must have a balance of at least `amount`. - the caller must have allowance for ``sender``'s tokens of at least `amount`."
      },
      "transferOwnership(address)": {
        "details": "Transfers ownership of the contract to a new account (`newOwner`). Can only be called by the current owner."
      }
    },
    "version": 1
  },
  "userdoc": {
    "kind": "user",
    "methods": {},
    "version": 1
  }
}