{
  "contractName": "FMTAToken",
  "abi": [
    {
      "inputs": [],
      "stateMutability": "nonpayable",
      "type": "constructor"
    },
    {
      "anonymous": false,
      "inputs": [
        {
          "indexed": true,
          "internalType": "address",
          "name": "owner",
          "type": "address"
        },
        {
          "indexed": true,
          "internalType": "address",
          "name": "spender",
          "type": "address"
        },
        {
          "indexed": false,
          "internalType": "uint256",
          "name": "value",
          "type": "uint256"
        }
      ],
      "name": "Approval",
      "type": "event"
    },
    {
      "anonymous": false,
      "inputs": [
        {
          "indexed": true,
          "internalType": "address",
          "name": "previousOwner",
          "type": "address"
        },
        {
          "indexed": true,
          "internalType": "address",
          "name": "newOwner",
          "type": "address"
        }
      ],
      "name": "OwnershipTransferred",
      "type": "event"
    },
    {
      "anonymous": false,
      "inputs": [
        {
          "indexed": true,
          "internalType": "bytes32",
          "name": "role",
          "type": "bytes32"
        },
        {
          "indexed": true,
          "internalType": "bytes32",
          "name": "previousAdminRole",
          "type": "bytes32"
        },
        {
          "indexed": true,
          "internalType": "bytes32",
          "name": "newAdminRole",
          "type": "bytes32"
        }
      ],
      "name": "RoleAdminChanged",
      "type": "event"
    },
    {
      "anonymous": false,
      "inputs": [
        {
          "indexed": true,
          "internalType": "bytes32",
          "name": "role",
          "type": "bytes32"
        },
        {
          "indexed": true,
          "internalType": "address",
          "name": "account",
          "type": "address"
        },
        {
          "indexed": true,
          "internalType": "address",
          "name": "sender",
          "type": "address"
        }
      ],
      "name": "RoleGranted",
      "type": "event"
    },
    {
      "anonymous": false,
      "inputs": [
        {
          "indexed": true,
          "internalType": "bytes32",
          "name": "role",
          "type": "bytes32"
        },
        {
          "indexed": true,
          "internalType": "address",
          "name": "account",
          "type": "address"
        },
        {
          "indexed": true,
          "internalType": "address",
          "name": "sender",
          "type": "address"
        }
      ],
      "name": "RoleRevoked",
      "type": "event"
    },
    {
      "anonymous": false,
      "inputs": [
        {
          "indexed": true,
          "internalType": "address",
          "name": "from",
          "type": "address"
        },
        {
          "indexed": true,
          "internalType": "address",
          "name": "to",
          "type": "address"
        },
        {
          "indexed": false,
          "internalType": "uint256",
          "name": "value",
          "type": "uint256"
        }
      ],
      "name": "Transfer",
      "type": "event"
    },
    {
      "inputs": [],
      "name": "DEFAULT_ADMIN_ROLE",
      "outputs": [
        {
          "internalType": "bytes32",
          "name": "",
          "type": "bytes32"
        }
      ],
      "stateMutability": "view",
      "type": "function"
    },
    {
      "inputs": [],
      "name": "USER_ROLE",
      "outputs": [
        {
          "internalType": "bytes32",
          "name": "",
          "type": "bytes32"
        }
      ],
      "stateMutability": "view",
      "type": "function"
    },
    {
      "inputs": [],
      "name": "_BURNER",
      "outputs": [
        {
          "internalType": "bytes32",
          "name": "",
          "type": "bytes32"
        }
      ],
      "stateMutability": "view",
      "type": "function"
    },
    {
      "inputs": [],
      "name": "_DISTRIBUTOR",
      "outputs": [
        {
          "internalType": "bytes32",
          "name": "",
          "type": "bytes32"
        }
      ],
      "stateMutability": "view",
      "type": "function"
    },
    {
      "inputs": [],
      "name": "_MINTER",
      "outputs": [
        {
          "internalType": "bytes32",
          "name": "",
          "type": "bytes32"
        }
      ],
      "stateMutability": "view",
      "type": "function"
    },
    {
      "inputs": [],
      "name": "_premine",
      "outputs": [
        {
          "internalType": "uint256",
          "name": "",
          "type": "uint256"
        }
      ],
      "stateMutability": "view",
      "type": "function"
    },
    {
      "inputs": [
        {
          "internalType": "address",
          "name": "owner",
          "type": "address"
        },
        {
          "internalType": "address",
          "name": "spender",
          "type": "address"
        }
      ],
      "name": "allowance",
      "outputs": [
        {
          "internalType": "uint256",
          "name": "",
          "type": "uint256"
        }
      ],
      "stateMutability": "view",
      "type": "function"
    },
    {
      "inputs": [
        {
          "internalType": "address",
          "name": "spender",
          "type": "address"
        },
        {
          "internalType": "uint256",
          "name": "amount",
          "type": "uint256"
        }
      ],
      "name": "approve",
      "outputs": [
        {
          "internalType": "bool",
          "name": "",
          "type": "bool"
        }
      ],
      "stateMutability": "nonpayable",
      "type": "function"
    },
    {
      "inputs": [
        {
          "internalType": "address",
          "name": "account",
          "type": "address"
        }
      ],
      "name": "balanceOf",
      "outputs": [
        {
          "internalType": "uint256",
          "name": "",
          "type": "uint256"
        }
      ],
      "stateMutability": "view",
      "type": "function"
    },
    {
      "inputs": [],
      "name": "decimals",
      "outputs": [
        {
          "internalType": "uint8",
          "name": "",
          "type": "uint8"
        }
      ],
      "stateMutability": "view",
      "type": "function"
    },
    {
      "inputs": [
        {
          "internalType": "address",
          "name": "spender",
          "type": "address"
        },
        {
          "internalType": "uint256",
          "name": "subtractedValue",
          "type": "uint256"
        }
      ],
      "name": "decreaseAllowance",
      "outputs": [
        {
          "internalType": "bool",
          "name": "",
          "type": "bool"
        }
      ],
      "stateMutability": "nonpayable",
      "type": "function"
    },
    {
      "inputs": [
        {
          "internalType": "bytes32",
          "name": "role",
          "type": "bytes32"
        }
      ],
      "name": "getRoleAdmin",
      "outputs": [
        {
          "internalType": "bytes32",
          "name": "",
          "type": "bytes32"
        }
      ],
      "stateMutability": "view",
      "type": "function"
    },
    {
      "inputs": [
        {
          "internalType": "bytes32",
          "name": "role",
          "type": "bytes32"
        },
        {
          "internalType": "uint256",
          "name": "index",
          "type": "uint256"
        }
      ],
      "name": "getRoleMember",
      "outputs": [
        {
          "internalType": "address",
          "name": "",
          "type": "address"
        }
      ],
      "stateMutability": "view",
      "type": "function"
    },
    {
      "inputs": [
        {
          "internalType": "bytes32",
          "name": "role",
          "type": "bytes32"
        }
      ],
      "name": "getRoleMemberCount",
      "outputs": [
        {
          "internalType": "uint256",
          "name": "",
          "type": "uint256"
        }
      ],
      "stateMutability": "view",
      "type": "function"
    },
    {
      "inputs": [
        {
          "internalType": "bytes32",
          "name": "role",
          "type": "bytes32"
        },
        {
          "internalType": "address",
          "name": "account",
          "type": "address"
        }
      ],
      "name": "grantRole",
      "outputs": [],
      "stateMutability": "nonpayable",
      "type": "function"
    },
    {
      "inputs": [
        {
          "internalType": "bytes32",
          "name": "role",
          "type": "bytes32"
        },
        {
          "internalType": "address",
          "name": "account",
          "type": "address"
        }
      ],
      "name": "hasRole",
      "outputs": [
        {
          "internalType": "bool",
          "name": "",
          "type": "bool"
        }
      ],
      "stateMutability": "view",
      "type": "function"
    },
    {
      "inputs": [
        {
          "internalType": "address",
          "name": "spender",
          "type": "address"
        },
        {
          "internalType": "uint256",
          "name": "addedValue",
          "type": "uint256"
        }
      ],
      "name": "increaseAllowance",
      "outputs": [
        {
          "internalType": "bool",
          "name": "",
          "type": "bool"
        }
      ],
      "stateMutability": "nonpayable",
      "type": "function"
    },
    {
      "inputs": [],
      "name": "name",
      "outputs": [
        {
          "internalType": "string",
          "name": "",
          "type": "string"
        }
      ],
      "stateMutability": "view",
      "type": "function"
    },
    {
      "inputs": [],
      "name": "owner",
      "outputs": [
        {
          "internalType": "address",
          "name": "",
          "type": "address"
        }
      ],
      "stateMutability": "view",
      "type": "function"
    },
    {
      "inputs": [],
      "name": "paused",
      "outputs": [
        {
          "internalType": "bool",
          "name": "",
          "type": "bool"
        }
      ],
      "stateMutability": "view",
      "type": "function"
    },
    {
      "inputs": [
        {
          "internalType": "address",
          "name": "newOwner",
          "type": "address"
        }
      ],
      "name": "renounceOwnership",
      "outputs": [],
      "stateMutability": "nonpayable",
      "type": "function"
    },
    {
      "inputs": [
        {
          "internalType": "bytes32",
          "name": "role",
          "type": "bytes32"
        },
        {
          "internalType": "address",
          "name": "account",
          "type": "address"
        }
      ],
      "name": "renounceRole",
      "outputs": [],
      "stateMutability": "nonpayable",
      "type": "function"
    },
    {
      "inputs": [
        {
          "internalType": "bytes32",
          "name": "role",
          "type": "bytes32"
        },
        {
          "internalType": "address",
          "name": "account",
          "type": "address"
        }
      ],
      "name": "revokeRole",
      "outputs": [],
      "stateMutability": "nonpayable",
      "type": "function"
    },
    {
      "inputs": [],
      "name": "stakeCalc",
      "outputs": [
        {
          "internalType": "uint256",
          "name": "",
          "type": "uint256"
        }
      ],
      "stateMutability": "view",
      "type": "function"
    },
    {
      "inputs": [],
      "name": "stakeCap",
      "outputs": [
        {
          "internalType": "uint256",
          "name": "",
          "type": "uint256"
        }
      ],
      "stateMutability": "view",
      "type": "function"
    },
    {
      "inputs": [],
      "name": "stakingOff",
      "outputs": [
        {
          "internalType": "bool",
          "name": "",
          "type": "bool"
        }
      ],
      "stateMutability": "view",
      "type": "function"
    },
    {
      "inputs": [],
      "name": "symbol",
      "outputs": [
        {
          "internalType": "string",
          "name": "",
          "type": "string"
        }
      ],
      "stateMutability": "view",
      "type": "function"
    },
    {
      "inputs": [],
      "name": "totalSupply",
      "outputs": [
        {
          "internalType": "uint256",
          "name": "",
          "type": "uint256"
        }
      ],
      "stateMutability": "view",
      "type": "function"
    },
    {
      "inputs": [
        {
          "internalType": "address",
          "name": "recipient",
          "type": "address"
        },
        {
          "internalType": "uint256",
          "name": "amount",
          "type": "uint256"
        }
      ],
      "name": "transfer",
      "outputs": [
        {
          "internalType": "bool",
          "name": "",
          "type": "bool"
        }
      ],
      "stateMutability": "nonpayable",
      "type": "function"
    },
    {
      "inputs": [
        {
          "internalType": "address",
          "name": "sender",
          "type": "address"
        },
        {
          "internalType": "address",
          "name": "recipient",
          "type": "address"
        },
        {
          "internalType": "uint256",
          "name": "amount",
          "type": "uint256"
        }
      ],
      "name": "transferFrom",
      "outputs": [
        {
          "internalType": "bool",
          "name": "",
          "type": "bool"
        }
      ],
      "stateMutability": "nonpayable",
      "type": "function"
    },
    {
      "inputs": [
        {
          "internalType": "address",
          "name": "newOwner",
          "type": "address"
        }
      ],
      "name": "transferOwnership",
      "outputs": [],
      "stateMutability": "nonpayable",
      "type": "function"
    },
    {
      "inputs": [],
      "name": "votingOff",
      "outputs": [
        {
          "internalType": "bool",
          "name": "",
          "type": "bool"
        }
      ],
      "stateMutability": "view",
      "type": "function"
    },
    {
      "inputs": [
        {
          "internalType": "address",
          "name": "_to",
          "type": "address"
        },
        {
          "internalType": "uint256",
          "name": "_amount",
          "type": "uint256"
        }
      ],
      "name": "mintTo",
      "outputs": [],
      "stateMutability": "nonpayable",
      "type": "function"
    },
    {
      "inputs": [
        {
          "internalType": "uint256",
          "name": "_amount",
          "type": "uint256"
        }
      ],
      "name": "mint",
      "outputs": [],
      "stateMutability": "nonpayable",
      "type": "function"
    },
    {
      "inputs": [
        {
          "internalType": "uint256",
          "name": "_amount",
          "type": "uint256"
        }
      ],
      "name": "burn",
      "outputs": [],
      "stateMutability": "nonpayable",
      "type": "function"
    },
    {
      "inputs": [
        {
          "internalType": "address",
          "name": "_from",
          "type": "address"
        },
        {
          "internalType": "uint256",
          "name": "_amount",
          "type": "uint256"
        }
      ],
      "name": "burnFrom",
      "outputs": [],
      "stateMutability": "nonpayable",
      "type": "function"
    },
    {
      "inputs": [
        {
          "internalType": "uint256",
          "name": "_supplyCap",
          "type": "uint256"
        }
      ],
      "name": "setSupplyCap",
      "outputs": [],
      "stateMutability": "nonpayable",
      "type": "function"
    },
    {
      "inputs": [],
      "name": "supplyCap",
      "outputs": [
        {
          "internalType": "uint256",
          "name": "",
          "type": "uint256"
        }
      ],
      "stateMutability": "view",
      "type": "function"
    },
    {
      "inputs": [
        {
          "internalType": "bool",
          "name": "_paused",
          "type": "bool"
        }
      ],
      "name": "setPaused",
      "outputs": [],
      "stateMutability": "nonpayable",
      "type": "function"
    },
    {
      "inputs": [
        {
          "internalType": "uint256",
          "name": "_stake",
          "type": "uint256"
        }
      ],
      "name": "createStake",
      "outputs": [],
      "stateMutability": "nonpayable",
      "type": "function"
    },
    {
      "inputs": [
        {
          "internalType": "uint256",
          "name": "_stake",
          "type": "uint256"
        }
      ],
      "name": "removeStake",
      "outputs": [],
      "stateMutability": "nonpayable",
      "type": "function"
    },
    {
      "inputs": [
        {
          "internalType": "address",
          "name": "_stakeholder",
          "type": "address"
        }
      ],
      "name": "stakeOf",
      "outputs": [
        {
          "internalType": "uint256",
          "name": "",
          "type": "uint256"
        }
      ],
      "stateMutability": "view",
      "type": "function"
    },
    {
      "inputs": [],
      "name": "totalStakes",
      "outputs": [
        {
          "internalType": "uint256",
          "name": "",
          "type": "uint256"
        }
      ],
      "stateMutability": "view",
      "type": "function"
    },
    {
      "inputs": [
        {
          "internalType": "address",
          "name": "_address",
          "type": "address"
        }
      ],
      "name": "isStakeholder",
      "outputs": [
        {
          "internalType": "bool",
          "name": "",
          "type": "bool"
        },
        {
          "internalType": "uint256",
          "name": "",
          "type": "uint256"
        }
      ],
      "stateMutability": "view",
      "type": "function"
    },
    {
      "inputs": [
        {
          "internalType": "address",
          "name": "_stakeholder",
          "type": "address"
        }
      ],
      "name": "addStakeholder",
      "outputs": [],
      "stateMutability": "nonpayable",
      "type": "function"
    },
    {
      "inputs": [
        {
          "internalType": "address",
          "name": "_stakeholder",
          "type": "address"
        }
      ],
      "name": "removeStakeholder",
      "outputs": [],
      "stateMutability": "nonpayable",
      "type": "function"
    },
    {
      "inputs": [
        {
          "internalType": "address",
          "name": "_stakeholder",
          "type": "address"
        }
      ],
      "name": "rewardOf",
      "outputs": [
        {
          "internalType": "uint256",
          "name": "",
          "type": "uint256"
        }
      ],
      "stateMutability": "view",
      "type": "function"
    },
    {
      "inputs": [],
      "name": "totalRewards",
      "outputs": [
        {
          "internalType": "uint256",
          "name": "",
          "type": "uint256"
        }
      ],
      "stateMutability": "view",
      "type": "function"
    },
    {
      "inputs": [
        {
          "internalType": "uint256",
          "name": "_stakeCalc",
          "type": "uint256"
        }
      ],
      "name": "setStakeCalc",
      "outputs": [],
      "stateMutability": "nonpayable",
      "type": "function"
    },
    {
      "inputs": [
        {
          "internalType": "uint256",
          "name": "_stakeCap",
          "type": "uint256"
        }
      ],
      "name": "setStakeCap",
      "outputs": [],
      "stateMutability": "nonpayable",
      "type": "function"
    },
    {
      "inputs": [
        {
          "internalType": "address",
          "name": "_stakeholder",
          "type": "address"
        }
      ],
      "name": "calculateReward",
      "outputs": [
        {
          "internalType": "uint256",
          "name": "",
          "type": "uint256"
        }
      ],
      "stateMutability": "view",
      "type": "function"
    },
    {
      "inputs": [],
      "name": "distributeRewards",
      "outputs": [],
      "stateMutability": "nonpayable",
      "type": "function"
    },
    {
      "inputs": [
        {
          "internalType": "bool",
          "name": "_stakingOff",
          "type": "bool"
        }
      ],
      "name": "stakeOff",
      "outputs": [],
      "stateMutability": "nonpayable",
      "type": "function"
    },
    {
      "inputs": [
        {
          "internalType": "uint256",
          "name": "_vote",
          "type": "uint256"
        }
      ],
      "name": "createVote",
      "outputs": [],
      "stateMutability": "nonpayable",
      "type": "function"
    },
    {
      "inputs": [
        {
          "internalType": "uint256",
          "name": "_vote",
          "type": "uint256"
        }
      ],
      "name": "removeVote",
      "outputs": [],
      "stateMutability": "nonpayable",
      "type": "function"
    },
    {
      "inputs": [
        {
          "internalType": "address",
          "name": "_voter",
          "type": "address"
        }
      ],
      "name": "voteOf",
      "outputs": [
        {
          "internalType": "uint256",
          "name": "",
          "type": "uint256"
        }
      ],
      "stateMutability": "view",
      "type": "function"
    },
    {
      "inputs": [],
      "name": "totalVotes",
      "outputs": [
        {
          "internalType": "uint256",
          "name": "",
          "type": "uint256"
        }
      ],
      "stateMutability": "view",
      "type": "function"
    },
    {
      "inputs": [
        {
          "internalType": "address",
          "name": "_address",
          "type": "address"
        }
      ],
      "name": "isVoter",
      "outputs": [
        {
          "internalType": "bool",
          "name": "",
          "type": "bool"
        },
        {
          "internalType": "uint256",
          "name": "",
          "type": "uint256"
        }
      ],
      "stateMutability": "view",
      "type": "function"
    },
    {
      "inputs": [
        {
          "internalType": "address",
          "name": "_voter",
          "type": "address"
        }
      ],
      "name": "addVoter",
      "outputs": [],
      "stateMutability": "nonpayable",
      "type": "function"
    },
    {
      "inputs": [
        {
          "internalType": "address",
          "name": "_voter",
          "type": "address"
        }
      ],
      "name": "removeVoter",
      "outputs": [],
      "stateMutability": "nonpayable",
      "type": "function"
    },
    {
      "inputs": [
        {
          "internalType": "bool",
          "name": "_votingOff",
          "type": "bool"
        }
      ],
      "name": "voteOff",
      "outputs": [],
      "stateMutability": "nonpayable",
      "type": "function"
    },
    {
      "inputs": [
        {
          "internalType": "address",
          "name": "account",
          "type": "address"
        }
      ],
      "name": "isAdmin",
      "outputs": [
        {
          "internalType": "bool",
          "name": "",
          "type": "bool"
        }
      ],
      "stateMutability": "view",
      "type": "function"
    },
    {
      "inputs": [
        {
          "internalType": "address",
          "name": "account",
          "type": "address"
        }
      ],
      "name": "isUser",
      "outputs": [
        {
          "internalType": "bool",
          "name": "",
          "type": "bool"
        }
      ],
      "stateMutability": "view",
      "type": "function"
    },
    {
      "inputs": [
        {
          "internalType": "address",
          "name": "account",
          "type": "address"
        }
      ],
      "name": "addUser",
      "outputs": [],
      "stateMutability": "nonpayable",
      "type": "function"
    },
    {
      "inputs": [
        {
          "internalType": "address",
          "name": "account",
          "type": "address"
        }
      ],
      "name": "addAdmin",
      "outputs": [],
      "stateMutability": "nonpayable",
      "type": "function"
    },
    {
      "inputs": [
        {
          "internalType": "address",
          "name": "account",
          "type": "address"
        }
      ],
      "name": "removeAdmin",
      "outputs": [],
      "stateMutability": "nonpayable",
      "type": "function"
    },
    {
      "inputs": [
        {
          "internalType": "address",
          "name": "account",
          "type": "address"
        }
      ],
      "name": "removeUser",
      "outputs": [],
      "stateMutability": "nonpayable",
      "type": "function"
    },
    {
      "inputs": [],
      "name": "renounceAdmin",
      "outputs": [],
      "stateMutability": "nonpayable",
      "type": "function"
    }
  ],
  "bytecode": "0x60806040526a295be96e640669720000006007556103e8600d5569065a4da25d3016c00000600e556001600f60006101000a81548160ff0219169083151502179055506001601260006101000a81548160ff0219169083151502179055503480156200006a57600080fd5b506040518060400160405280600a81526020017f46756e64616d656e74610000000000000000000000000000000000000000000081525060039080519060200190620000b892919062000839565b506040518060400160405280600481526020017f464d544100000000000000000000000000000000000000000000000000000000815250600490805190602001906200010692919062000839565b506012600560006101000a81548160ff021916908360ff160217905550600062000135620002ef60201b60201c565b905080600560016101000a81548173ffffffffffffffffffffffffffffffffffffffff021916908373ffffffffffffffffffffffffffffffffffffffff1602179055508073ffffffffffffffffffffffffffffffffffffffff16600073ffffffffffffffffffffffffffffffffffffffff167f8be0079c531659141344cd1fd0a4f28419497f9722a3daafe3b4186f6b6457e060405160405180910390a3506a06342fd08f00f637800000600881905550620001fa33600854620002f760201b60201c565b6200022a7356aaf8bb0e5e52e414fd530eac2dfccc9caa349b6934f086f3b33b68400000620002f760201b60201c565b6200025a73223478514f46a1788ab86c78c431f7882fd53af569250ec4ddca432f600000620002f760201b60201c565b6200028a7383363ac47b0147ab81b1b1215ef18b281c82cd12690fe1c215e8f838e00000620002f760201b60201c565b6200029f6000801b33620004d560201b60201c565b620002e960405180807f5553455200000000000000000000000000000000000000000000000000000000815250600401905060405180910390206000801b620004eb60201b60201c565b620008e8565b600033905090565b600073ffffffffffffffffffffffffffffffffffffffff168273ffffffffffffffffffffffffffffffffffffffff1614156200039b576040517f08c379a000000000000000000000000000000000000000000000000000000000815260040180806020018281038252601f8152602001807f45524332303a206d696e7420746f20746865207a65726f20616464726573730081525060200191505060405180910390fd5b620003af600083836200054f60201b60201c565b620003cb816002546200062860201b6200461a1790919060201c565b60028190555062000429816000808573ffffffffffffffffffffffffffffffffffffffff1673ffffffffffffffffffffffffffffffffffffffff168152602001908152602001600020546200062860201b6200461a1790919060201c565b6000808473ffffffffffffffffffffffffffffffffffffffff1673ffffffffffffffffffffffffffffffffffffffff168152602001908152602001600020819055508173ffffffffffffffffffffffffffffffffffffffff16600073ffffffffffffffffffffffffffffffffffffffff167fddf252ad1be2c89b69c2b068fc378daa952ba7f163c4a11628f55a4df523b3ef836040518082815260200191505060405180910390a35050565b620004e78282620006b160201b60201c565b5050565b806006600084815260200190815260200160002060020154837fbd79b86ffe0ab8e8776151514217cd7cacd52c909f66475c3af44e129f0b00ff60405160405180910390a48060066000848152602001908152602001600020600201819055505050565b620005678383836200075560201b620051501760201c565b600073ffffffffffffffffffffffffffffffffffffffff168373ffffffffffffffffffffffffffffffffffffffff1614156200062357600754620005c982620005b56200075a60201b60201c565b6200062860201b6200461a1790919060201c565b111562000622576040517f08c379a000000000000000000000000000000000000000000000000000000000815260040180806020018281038252602681526020018062005e476026913960400191505060405180910390fd5b5b505050565b600080828401905083811015620006a7576040517f08c379a000000000000000000000000000000000000000000000000000000000815260040180806020018281038252601b8152602001807f536166654d6174683a206164646974696f6e206f766572666c6f77000000000081525060200191505060405180910390fd5b8091505092915050565b620006e081600660008581526020019081526020016000206000016200076460201b620050391790919060201c565b156200075157620006f6620002ef60201b60201c565b73ffffffffffffffffffffffffffffffffffffffff168173ffffffffffffffffffffffffffffffffffffffff16837f2f8788117e7eff1d82e926ec794901d17c78024a50270940304540a733656f0d60405160405180910390a45b5050565b505050565b6000600254905090565b600062000794836000018373ffffffffffffffffffffffffffffffffffffffff1660001b6200079c60201b60201c565b905092915050565b6000620007b083836200081660201b60201c565b6200080b57826000018290806001815401808255809150506001900390600052602060002001600090919091909150558260000180549050836001016000848152602001908152602001600020819055506001905062000810565b600090505b92915050565b600080836001016000848152602001908152602001600020541415905092915050565b828054600181600116156101000203166002900490600052602060002090601f016020900481019282601f106200087c57805160ff1916838001178555620008ad565b82800160010185558215620008ad579182015b82811115620008ac5782518255916020019190600101906200088f565b5b509050620008bc9190620008c0565b5090565b620008e591905b80821115620008e1576000816000905550600101620008c7565b5090565b90565b61554f80620008f86000396000f3fe608060405234801561001057600080fd5b50600436106103fc5760003560e01c80637e4a379611610215578063ad67ddcb11610125578063d82e3962116100b8578063f2fde38b11610087578063f2fde38b146113c3578063f3b3510014611407578063f3bccba31461145f578063f4ab9adf1461148d578063fa954aa0146114d1576103fc565b8063d82e39621461124c578063dd62ed3e146112a4578063e5c42fd11461131c578063ef037b9014611360576103fc565b8063bcb0c2d7116100f4578063bcb0c2d71461115a578063bf9befb11461119e578063ca15c873146111bc578063d547741f146111fe576103fc565b8063ad67ddcb146110ce578063b6a3f59a146110f0578063b6fbf3081461111e578063ba28fd2e1461113c576103fc565b806395d89b41116101a8578063a217fddf11610177578063a217fddf14610f63578063a457c2d714610f81578063a56bef5d14610fe7578063a7771ee314611005578063a9059cbb14611068576103fc565b806395d89b4114610e3e57806397e459f914610ec15780639857518814610ef1578063a0712d6814610f35576103fc565b80638f770ad0116101e45780638f770ad014610d145780639010d07c14610d3257806391d1485414610daa578063939624ab14610e10576103fc565b80637e4a379614610c4c57806386c1ff6814610c7c5780638bad0c0a14610cc05780638da5cb5b14610cca576103fc565b806336568abe11610310578063449a52f8116102a35780636f4a2cd0116102725780636f4a2cd014610b2a5780637048027514610b345780637080543514610b7857806370a0823114610ba657806379cc679014610bfe576103fc565b8063449a52f814610a7a5780635c975abb14610ac857806360a3ae0614610aea57806368f34eb514610b0c576103fc565b80634209fff1116102df5780634209fff114610954578063421b2d8b146109b057806342623360146109f457806342966c6814610a4c576103fc565b806336568abe1461082e57806338bf3cfa1461087c57806339509351146108c05780633f68fde414610926576103fc565b80631785f53c1161039357806323b872dd1161036257806323b872dd14610698578063248a9ca31461071e57806324d7806c146107605780632f2ff15d146107bc578063313ce5671461080a576103fc565b80631785f53c146105b057806318160ddd146105f45780631bf6ddae146106125780631d62ebd914610640576103fc565b80630d15fd77116103cf5780630d15fd77146105265780630e15561a14610544578063131191611461056257806316c38b3c14610580576103fc565b806306fdde031461040157806308daaf4a14610484578063095ea7b3146104a25780630a68a0cc14610508575b600080fd5b6104096114ff565b6040518080602001828103825283818151815260200191508051906020019080838360005b8381101561044957808201518184015260208101905061042e565b50505050905090810190601f1680156104765780820380516001836020036101000a031916815260200191505b509250505060405180910390f35b61048c6115a1565b6040518082815260200191505060405180910390f35b6104ee600480360360408110156104b857600080fd5b81019080803573ffffffffffffffffffffffffffffffffffffffff169060200190929190803590602001909291905050506115a7565b604051808215151515815260200191505060405180910390f35b6105106115c5565b6040518082815260200191505060405180910390f35b61052e6115fe565b6040518082815260200191505060405180910390f35b61054c6116b6565b6040518082815260200191505060405180910390f35b61056a61176e565b6040518082815260200191505060405180910390f35b6105ae6004803603602081101561059657600080fd5b810190808035151590602001909291905050506117a7565b005b6105f2600480360360208110156105c657600080fd5b81019080803573ffffffffffffffffffffffffffffffffffffffff169060200190929190505050611871565b005b6105fc61192e565b6040518082815260200191505060405180910390f35b61063e6004803603602081101561062857600080fd5b8101908080359060200190929190505050611938565b005b6106826004803603602081101561065657600080fd5b81019080803573ffffffffffffffffffffffffffffffffffffffff169060200190929190505050611be9565b6040518082815260200191505060405180910390f35b610704600480360360608110156106ae57600080fd5b81019080803573ffffffffffffffffffffffffffffffffffffffff169060200190929190803573ffffffffffffffffffffffffffffffffffffffff16906020019092919080359060200190929190505050611c32565b604051808215151515815260200191505060405180910390f35b61074a6004803603602081101561073457600080fd5b8101908080359060200190929190505050611d0b565b6040518082815260200191505060405180910390f35b6107a26004803603602081101561077657600080fd5b81019080803573ffffffffffffffffffffffffffffffffffffffff169060200190929190505050611d2b565b604051808215151515815260200191505060405180910390f35b610808600480360360408110156107d257600080fd5b8101908080359060200190929190803573ffffffffffffffffffffffffffffffffffffffff169060200190929190505050611d41565b005b610812611dcb565b604051808260ff1660ff16815260200191505060405180910390f35b61087a6004803603604081101561084457600080fd5b8101908080359060200190929190803573ffffffffffffffffffffffffffffffffffffffff169060200190929190505050611de2565b005b6108be6004803603602081101561089257600080fd5b81019080803573ffffffffffffffffffffffffffffffffffffffff169060200190929190505050611e7b565b005b61090c600480360360408110156108d657600080fd5b81019080803573ffffffffffffffffffffffffffffffffffffffff16906020019092919080359060200190929190505050611fe9565b604051808215151515815260200191505060405180910390f35b6109526004803603602081101561093c57600080fd5b810190808035906020019092919050505061209c565b005b6109966004803603602081101561096a57600080fd5b81019080803573ffffffffffffffffffffffffffffffffffffffff169060200190929190505050612296565b604051808215151515815260200191505060405180910390f35b6109f2600480360360208110156109c657600080fd5b81019080803573ffffffffffffffffffffffffffffffffffffffff1690602001909291905050506122de565b005b610a3660048036036020811015610a0a57600080fd5b81019080803573ffffffffffffffffffffffffffffffffffffffff16906020019092919050505061239b565b6040518082815260200191505060405180910390f35b610a7860048036036020811015610a6257600080fd5b81019080803590602001909291905050506123e4565b005b610ac660048036036040811015610a9057600080fd5b81019080803573ffffffffffffffffffffffffffffffffffffffff169060200190929190803590602001909291905050506124bc565b005b610ad0612595565b604051808215151515815260200191505060405180910390f35b610af26125a8565b604051808215151515815260200191505060405180910390f35b610b146125bb565b6040518082815260200191505060405180910390f35b610b326125c1565b005b610b7660048036036020811015610b4a57600080fd5b81019080803573ffffffffffffffffffffffffffffffffffffffff16906020019092919050505061281a565b005b610ba460048036036020811015610b8e57600080fd5b81019080803590602001909291905050506128a5565b005b610be860048036036020811015610bbc57600080fd5b81019080803573ffffffffffffffffffffffffffffffffffffffff1690602001909291905050506129df565b6040518082815260200191505060405180910390f35b610c4a60048036036040811015610c1457600080fd5b81019080803573ffffffffffffffffffffffffffffffffffffffff16906020019092919080359060200190929190505050612a27565b005b610c7a60048036036020811015610c6257600080fd5b81019080803515159060200190929190505050612b00565b005b610cbe60048036036020811015610c9257600080fd5b81019080803573ffffffffffffffffffffffffffffffffffffffff169060200190929190505050612bca565b005b610cc8612dc1565b005b610cd2612dd0565b604051808273ffffffffffffffffffffffffffffffffffffffff1673ffffffffffffffffffffffffffffffffffffffff16815260200191505060405180910390f35b610d1c612dfa565b6040518082815260200191505060405180910390f35b610d6860048036036040811015610d4857600080fd5b810190808035906020019092919080359060200190929190505050612e04565b604051808273ffffffffffffffffffffffffffffffffffffffff1673ffffffffffffffffffffffffffffffffffffffff16815260200191505060405180910390f35b610df660048036036040811015610dc057600080fd5b8101908080359060200190929190803573ffffffffffffffffffffffffffffffffffffffff169060200190929190505050612e36565b604051808215151515815260200191505060405180910390f35b610e3c60048036036020811015610e2657600080fd5b8101908080359060200190929190505050612e68565b005b610e46613062565b6040518080602001828103825283818151815260200191508051906020019080838360005b83811015610e86578082015181840152602081019050610e6b565b50505050905090810190601f168015610eb35780820380516001836020036101000a031916815260200191505b509250505060405180910390f35b610eef60048036036020811015610ed757600080fd5b81019080803515159060200190929190505050613104565b005b610f3360048036036020811015610f0757600080fd5b81019080803573ffffffffffffffffffffffffffffffffffffffff1690602001909291905050506131ce565b005b610f6160048036036020811015610f4b57600080fd5b810190808035906020019092919050505061328b565b005b610f6b613363565b6040518082815260200191505060405180910390f35b610fcd60048036036040811015610f9757600080fd5b81019080803573ffffffffffffffffffffffffffffffffffffffff1690602001909291908035906020019092919050505061336a565b604051808215151515815260200191505060405180910390f35b610fef613437565b6040518082815260200191505060405180910390f35b6110476004803603602081101561101b57600080fd5b81019080803573ffffffffffffffffffffffffffffffffffffffff169060200190929190505050613470565b60405180831515151581526020018281526020019250505060405180910390f35b6110b46004803603604081101561107e57600080fd5b81019080803573ffffffffffffffffffffffffffffffffffffffff1690602001909291908035906020019092919050505061351a565b604051808215151515815260200191505060405180910390f35b6110d6613538565b604051808215151515815260200191505060405180910390f35b61111c6004803603602081101561110657600080fd5b810190808035906020019092919050505061354b565b005b611126613685565b6040518082815260200191505060405180910390f35b6111446136be565b6040518082815260200191505060405180910390f35b61119c6004803603602081101561117057600080fd5b81019080803573ffffffffffffffffffffffffffffffffffffffff1690602001909291905050506136c4565b005b6111a66138bb565b6040518082815260200191505060405180910390f35b6111e8600480360360208110156111d257600080fd5b8101908080359060200190929190505050613973565b6040518082815260200191505060405180910390f35b61124a6004803603604081101561121457600080fd5b8101908080359060200190929190803573ffffffffffffffffffffffffffffffffffffffff16906020019092919050505061399a565b005b61128e6004803603602081101561126257600080fd5b81019080803573ffffffffffffffffffffffffffffffffffffffff169060200190929190505050613a24565b6040518082815260200191505060405180910390f35b611306600480360360408110156112ba57600080fd5b81019080803573ffffffffffffffffffffffffffffffffffffffff169060200190929190803573ffffffffffffffffffffffffffffffffffffffff169060200190929190505050613a78565b6040518082815260200191505060405180910390f35b61135e6004803603602081101561133257600080fd5b81019080803573ffffffffffffffffffffffffffffffffffffffff169060200190929190505050613aff565b005b6113a26004803603602081101561137657600080fd5b81019080803573ffffffffffffffffffffffffffffffffffffffff169060200190929190505050613c80565b60405180831515151581526020018281526020019250505060405180910390f35b611405600480360360208110156113d957600080fd5b81019080803573ffffffffffffffffffffffffffffffffffffffff169060200190929190505050613d2a565b005b6114496004803603602081101561141d57600080fd5b81019080803573ffffffffffffffffffffffffffffffffffffffff169060200190929190505050613f1d565b6040518082815260200191505060405180910390f35b61148b6004803603602081101561147557600080fd5b8101908080359060200190929190505050613f66565b005b6114cf600480360360208110156114a357600080fd5b81019080803573ffffffffffffffffffffffffffffffffffffffff1690602001909291905050506140a0565b005b6114fd600480360360208110156114e757600080fd5b8101908080359060200190929190505050614221565b005b606060038054600181600116156101000203166002900480601f0160208091040260200160405190810160405280929190818152602001828054600181600116156101000203166002900480156115975780601f1061156c57610100808354040283529160200191611597565b820191906000526020600020905b81548152906001019060200180831161157a57829003601f168201915b5050505050905090565b60085481565b60006115bb6115b461441b565b8484614423565b6001905092915050565b60405180807f5f4449535452494255544f520000000000000000000000000000000000000000815250600c019050604051809103902081565b6000806000905060008090505b6010805490508110156116ae576116a1600b60006010848154811061162c57fe5b9060005260206000200160009054906101000a900473ffffffffffffffffffffffffffffffffffffffff1673ffffffffffffffffffffffffffffffffffffffff1673ffffffffffffffffffffffffffffffffffffffff168152602001908152602001600020548361461a90919063ffffffff16565b915060018101905061160b565b508091505090565b6000806000905060008090505b600a8054905081101561176657611759600c6000600a84815481106116e457fe5b9060005260206000200160009054906101000a900473ffffffffffffffffffffffffffffffffffffffff1673ffffffffffffffffffffffffffffffffffffffff1673ffffffffffffffffffffffffffffffffffffffff168152602001908152602001600020548361461a90919063ffffffff16565b91506001810190506116c3565b508091505090565b60405180807f55534552000000000000000000000000000000000000000000000000000000008152506004019050604051809103902081565b6117af61441b565b73ffffffffffffffffffffffffffffffffffffffff16600560019054906101000a900473ffffffffffffffffffffffffffffffffffffffff1673ffffffffffffffffffffffffffffffffffffffff1614611854576040517f08c379a000000000000000000000000000000000000000000000000000000000815260040180806020018281038252602c81526020018061549a602c913960400191505060405180910390fd5b80600960006101000a81548160ff02191690831515021790555050565b61187961441b565b73ffffffffffffffffffffffffffffffffffffffff16600560019054906101000a900473ffffffffffffffffffffffffffffffffffffffff1673ffffffffffffffffffffffffffffffffffffffff161461191e576040517f08c379a000000000000000000000000000000000000000000000000000000000815260040180806020018281038252602c81526020018061549a602c913960400191505060405180910390fd5b61192b6000801b8261399a565b50565b6000600254905090565b600960009054906101000a900460ff16156119bb576040517f08c379a00000000000000000000000000000000000000000000000000000000081526004018080602001828103825260128152602001807f436f6e747261637420697320506175736564000000000000000000000000000081525060200191505060405180910390fd5b600f60009054906101000a900460ff1615611a3e576040517f08c379a000000000000000000000000000000000000000000000000000000000815260040180806020018281038252601f8152602001807f5374616b696e67206973206e6f742063757272656e746c79206163746976650081525060200191505060405180910390fd5b6000600b60003373ffffffffffffffffffffffffffffffffffffffff1673ffffffffffffffffffffffffffffffffffffffff168152602001908152602001600020541415611a9057611a8f33613aff565b5b611ae281600b60003373ffffffffffffffffffffffffffffffffffffffff1673ffffffffffffffffffffffffffffffffffffffff1681526020019081526020016000205461461a90919063ffffffff16565b600b60003373ffffffffffffffffffffffffffffffffffffffff1673ffffffffffffffffffffffffffffffffffffffff16815260200190815260200160002081905550600e54600b60003373ffffffffffffffffffffffffffffffffffffffff1673ffffffffffffffffffffffffffffffffffffffff168152602001908152602001600020541115611bdc576040517f08c379a000000000000000000000000000000000000000000000000000000000815260040180806020018281038252601e8152602001807f43616e6e6f74207374616b65206d6f7265207468616e20616c6c6f776564000081525060200191505060405180910390fd5b611be633826146a2565b50565b6000600c60008373ffffffffffffffffffffffffffffffffffffffff1673ffffffffffffffffffffffffffffffffffffffff168152602001908152602001600020549050919050565b6000611c3f848484614866565b611d0084611c4b61441b565b611cfb8560405180606001604052806028815260200161540860289139600160008b73ffffffffffffffffffffffffffffffffffffffff1673ffffffffffffffffffffffffffffffffffffffff1681526020019081526020016000206000611cb161441b565b73ffffffffffffffffffffffffffffffffffffffff1673ffffffffffffffffffffffffffffffffffffffff16815260200190815260200160002054614b279092919063ffffffff16565b614423565b600190509392505050565b600060066000838152602001908152602001600020600201549050919050565b6000611d3a6000801b83612e36565b9050919050565b611d686006600084815260200190815260200160002060020154611d6361441b565b612e36565b611dbd576040517f08c379a000000000000000000000000000000000000000000000000000000000815260040180806020018281038252602f815260200180615319602f913960400191505060405180910390fd5b611dc78282614be7565b5050565b6000600560009054906101000a900460ff16905090565b611dea61441b565b73ffffffffffffffffffffffffffffffffffffffff168173ffffffffffffffffffffffffffffffffffffffff1614611e6d576040517f08c379a000000000000000000000000000000000000000000000000000000000815260040180806020018281038252602f8152602001806154eb602f913960400191505060405180910390fd5b611e778282614c7b565b5050565b611e8361441b565b73ffffffffffffffffffffffffffffffffffffffff16600560019054906101000a900473ffffffffffffffffffffffffffffffffffffffff1673ffffffffffffffffffffffffffffffffffffffff1614611f28576040517f08c379a000000000000000000000000000000000000000000000000000000000815260040180806020018281038252602c81526020018061549a602c913960400191505060405180910390fd5b600073ffffffffffffffffffffffffffffffffffffffff16600560019054906101000a900473ffffffffffffffffffffffffffffffffffffffff1673ffffffffffffffffffffffffffffffffffffffff167f8be0079c531659141344cd1fd0a4f28419497f9722a3daafe3b4186f6b6457e060405160405180910390a380600560016101000a81548173ffffffffffffffffffffffffffffffffffffffff021916908373ffffffffffffffffffffffffffffffffffffffff16021790555050565b6000612092611ff661441b565b8461208d856001600061200761441b565b73ffffffffffffffffffffffffffffffffffffffff1673ffffffffffffffffffffffffffffffffffffffff16815260200190815260200160002060008973ffffffffffffffffffffffffffffffffffffffff1673ffffffffffffffffffffffffffffffffffffffff1681526020019081526020016000205461461a90919063ffffffff16565b614423565b6001905092915050565b601260009054906101000a900460ff161561211f576040517f08c379a000000000000000000000000000000000000000000000000000000000815260040180806020018281038252601e8152602001807f566f74696e67206973206e6f742063757272656e746c7920616374697665000081525060200191505060405180910390fd5b600960009054906101000a900460ff16156121a2576040517f08c379a00000000000000000000000000000000000000000000000000000000081526004018080602001828103825260128152602001807f436f6e747261637420697320506175736564000000000000000000000000000081525060200191505060405180910390fd5b6121f481601160003373ffffffffffffffffffffffffffffffffffffffff1673ffffffffffffffffffffffffffffffffffffffff16815260200190815260200160002054614d0f90919063ffffffff16565b601160003373ffffffffffffffffffffffffffffffffffffffff1673ffffffffffffffffffffffffffffffffffffffff168152602001908152602001600020819055506000601160003373ffffffffffffffffffffffffffffffffffffffff1673ffffffffffffffffffffffffffffffffffffffff1681526020019081526020016000205414156122895761228833612bca565b5b6122933382614d59565b50565b60006122d760405180807f55534552000000000000000000000000000000000000000000000000000000008152506004019050604051809103902083612e36565b9050919050565b6122e733611d2b565b612359576040517f08c379a00000000000000000000000000000000000000000000000000000000081526004018080602001828103825260158152602001807f5265737472696374656420746f2061646d696e732e000000000000000000000081525060200191505060405180910390fd5b61239860405180807f55534552000000000000000000000000000000000000000000000000000000008152506004019050604051809103902082611d41565b50565b6000600b60008373ffffffffffffffffffffffffffffffffffffffff1673ffffffffffffffffffffffffffffffffffffffff168152602001908152602001600020549050919050565b600960009054906101000a900460ff1615612467576040517f08c379a00000000000000000000000000000000000000000000000000000000081526004018080602001828103825260128152602001807f436f6e747261637420697320506175736564000000000000000000000000000081525060200191505060405180910390fd5b6124a660405180807f5f4255524e4552000000000000000000000000000000000000000000000000008152506007019050604051809103902033612e36565b6124af57600080fd5b6124b933826146a2565b50565b600960009054906101000a900460ff161561253f576040517f08c379a00000000000000000000000000000000000000000000000000000000081526004018080602001828103825260128152602001807f436f6e747261637420697320506175736564000000000000000000000000000081525060200191505060405180910390fd5b61257e60405180807f5f4d494e544552000000000000000000000000000000000000000000000000008152506007019050604051809103902033612e36565b61258757600080fd5b6125918282614d59565b5050565b600960009054906101000a900460ff1681565b601260009054906101000a900460ff1681565b600d5481565b600960009054906101000a900460ff1615612644576040517f08c379a00000000000000000000000000000000000000000000000000000000081526004018080602001828103825260128152602001807f436f6e747261637420697320506175736564000000000000000000000000000081525060200191505060405180910390fd5b600f60009054906101000a900460ff16156126c7576040517f08c379a000000000000000000000000000000000000000000000000000000000815260040180806020018281038252601f8152602001807f5374616b696e67206973206e6f742063757272656e746c79206163746976650081525060200191505060405180910390fd5b61270660405180807f5f4449535452494255544f520000000000000000000000000000000000000000815250600c019050604051809103902033612e36565b61270f57600080fd5b60008090505b600a80549050811015612817576000600a828154811061273157fe5b9060005260206000200160009054906101000a900473ffffffffffffffffffffffffffffffffffffffff169050600061276982613a24565b90506127bd81600c60008573ffffffffffffffffffffffffffffffffffffffff1673ffffffffffffffffffffffffffffffffffffffff1681526020019081526020016000205461461a90919063ffffffff16565b600c60008473ffffffffffffffffffffffffffffffffffffffff1673ffffffffffffffffffffffffffffffffffffffff1681526020019081526020016000208190555061280a8282614d59565b5050600181019050612715565b50565b61282333611d2b565b612895576040517f08c379a00000000000000000000000000000000000000000000000000000000081526004018080602001828103825260158152602001807f5265737472696374656420746f2061646d696e732e000000000000000000000081525060200191505060405180910390fd5b6128a26000801b82611d41565b50565b6128ad61441b565b73ffffffffffffffffffffffffffffffffffffffff16600560019054906101000a900473ffffffffffffffffffffffffffffffffffffffff1673ffffffffffffffffffffffffffffffffffffffff1614612952576040517f08c379a000000000000000000000000000000000000000000000000000000000815260040180806020018281038252602c81526020018061549a602c913960400191505060405180910390fd5b600960009054906101000a900460ff16156129d5576040517f08c379a00000000000000000000000000000000000000000000000000000000081526004018080602001828103825260128152602001807f436f6e747261637420697320506175736564000000000000000000000000000081525060200191505060405180910390fd5b80600e8190555050565b60008060008373ffffffffffffffffffffffffffffffffffffffff1673ffffffffffffffffffffffffffffffffffffffff168152602001908152602001600020549050919050565b600960009054906101000a900460ff1615612aaa576040517f08c379a00000000000000000000000000000000000000000000000000000000081526004018080602001828103825260128152602001807f436f6e747261637420697320506175736564000000000000000000000000000081525060200191505060405180910390fd5b612ae960405180807f5f4255524e4552000000000000000000000000000000000000000000000000008152506007019050604051809103902033612e36565b612af257600080fd5b612afc82826146a2565b5050565b612b0861441b565b73ffffffffffffffffffffffffffffffffffffffff16600560019054906101000a900473ffffffffffffffffffffffffffffffffffffffff1673ffffffffffffffffffffffffffffffffffffffff1614612bad576040517f08c379a000000000000000000000000000000000000000000000000000000000815260040180806020018281038252602c81526020018061549a602c913960400191505060405180910390fd5b80601260006101000a81548160ff02191690831515021790555050565b601260009054906101000a900460ff1615612c4d576040517f08c379a000000000000000000000000000000000000000000000000000000000815260040180806020018281038252601e8152602001807f566f74696e67206973206e6f742063757272656e746c7920616374697665000081525060200191505060405180910390fd5b600960009054906101000a900460ff1615612cd0576040517f08c379a00000000000000000000000000000000000000000000000000000000081526004018080602001828103825260128152602001807f436f6e747261637420697320506175736564000000000000000000000000000081525060200191505060405180910390fd5b600080612cdc83613470565b915091508115612dbc57601060016010805490500381548110612cfb57fe5b9060005260206000200160009054906101000a900473ffffffffffffffffffffffffffffffffffffffff1660108281548110612d3357fe5b9060005260206000200160006101000a81548173ffffffffffffffffffffffffffffffffffffffff021916908373ffffffffffffffffffffffffffffffffffffffff1602179055506010805480612d8657fe5b6001900381819060005260206000200160006101000a81549073ffffffffffffffffffffffffffffffffffffffff021916905590555b505050565b612dce6000801b33611de2565b565b6000600560019054906101000a900473ffffffffffffffffffffffffffffffffffffffff16905090565b6000600754905090565b6000612e2e8260066000868152602001908152602001600020600001614f2090919063ffffffff16565b905092915050565b6000612e608260066000868152602001908152602001600020600001614f3a90919063ffffffff16565b905092915050565b600960009054906101000a900460ff1615612eeb576040517f08c379a00000000000000000000000000000000000000000000000000000000081526004018080602001828103825260128152602001807f436f6e747261637420697320506175736564000000000000000000000000000081525060200191505060405180910390fd5b600f60009054906101000a900460ff1615612f6e576040517f08c379a000000000000000000000000000000000000000000000000000000000815260040180806020018281038252601f8152602001807f5374616b696e67206973206e6f742063757272656e746c79206163746976650081525060200191505060405180910390fd5b612fc081600b60003373ffffffffffffffffffffffffffffffffffffffff1673ffffffffffffffffffffffffffffffffffffffff16815260200190815260200160002054614d0f90919063ffffffff16565b600b60003373ffffffffffffffffffffffffffffffffffffffff1673ffffffffffffffffffffffffffffffffffffffff168152602001908152602001600020819055506000600b60003373ffffffffffffffffffffffffffffffffffffffff1673ffffffffffffffffffffffffffffffffffffffff16815260200190815260200160002054141561305557613054336136c4565b5b61305f3382614d59565b50565b606060048054600181600116156101000203166002900480601f0160208091040260200160405190810160405280929190818152602001828054600181600116156101000203166002900480156130fa5780601f106130cf576101008083540402835291602001916130fa565b820191906000526020600020905b8154815290600101906020018083116130dd57829003601f168201915b5050505050905090565b61310c61441b565b73ffffffffffffffffffffffffffffffffffffffff16600560019054906101000a900473ffffffffffffffffffffffffffffffffffffffff1673ffffffffffffffffffffffffffffffffffffffff16146131b1576040517f08c379a000000000000000000000000000000000000000000000000000000000815260040180806020018281038252602c81526020018061549a602c913960400191505060405180910390fd5b80600f60006101000a81548160ff02191690831515021790555050565b6131d733611d2b565b613249576040517f08c379a00000000000000000000000000000000000000000000000000000000081526004018080602001828103825260158152602001807f5265737472696374656420746f2061646d696e732e000000000000000000000081525060200191505060405180910390fd5b61328860405180807f5553455200000000000000000000000000000000000000000000000000000000815250600401905060405180910390208261399a565b50565b600960009054906101000a900460ff161561330e576040517f08c379a00000000000000000000000000000000000000000000000000000000081526004018080602001828103825260128152602001807f436f6e747261637420697320506175736564000000000000000000000000000081525060200191505060405180910390fd5b61334d60405180807f5f4d494e544552000000000000000000000000000000000000000000000000008152506007019050604051809103902033612e36565b61335657600080fd5b6133603382614d59565b50565b6000801b81565b600061342d61337761441b565b84613428856040518060600160405280602581526020016154c660259139600160006133a161441b565b73ffffffffffffffffffffffffffffffffffffffff1673ffffffffffffffffffffffffffffffffffffffff16815260200190815260200160002060008a73ffffffffffffffffffffffffffffffffffffffff1673ffffffffffffffffffffffffffffffffffffffff16815260200190815260200160002054614b279092919063ffffffff16565b614423565b6001905092915050565b60405180807f5f4d494e544552000000000000000000000000000000000000000000000000008152506007019050604051809103902081565b60008060008090505b601080549050811015613509576010818154811061349357fe5b9060005260206000200160009054906101000a900473ffffffffffffffffffffffffffffffffffffffff1673ffffffffffffffffffffffffffffffffffffffff168473ffffffffffffffffffffffffffffffffffffffff1614156134fe576001819250925050613515565b600181019050613479565b50600080809050915091505b915091565b600061352e61352761441b565b8484614866565b6001905092915050565b600f60009054906101000a900460ff1681565b61355361441b565b73ffffffffffffffffffffffffffffffffffffffff16600560019054906101000a900473ffffffffffffffffffffffffffffffffffffffff1673ffffffffffffffffffffffffffffffffffffffff16146135f8576040517f08c379a000000000000000000000000000000000000000000000000000000000815260040180806020018281038252602c81526020018061549a602c913960400191505060405180910390fd5b600960009054906101000a900460ff161561367b576040517f08c379a00000000000000000000000000000000000000000000000000000000081526004018080602001828103825260128152602001807f436f6e747261637420697320506175736564000000000000000000000000000081525060200191505060405180910390fd5b8060078190555050565b60405180807f5f4255524e4552000000000000000000000000000000000000000000000000008152506007019050604051809103902081565b600e5481565b600960009054906101000a900460ff1615613747576040517f08c379a00000000000000000000000000000000000000000000000000000000081526004018080602001828103825260128152602001807f436f6e747261637420697320506175736564000000000000000000000000000081525060200191505060405180910390fd5b600f60009054906101000a900460ff16156137ca576040517f08c379a000000000000000000000000000000000000000000000000000000000815260040180806020018281038252601f8152602001807f5374616b696e67206973206e6f742063757272656e746c79206163746976650081525060200191505060405180910390fd5b6000806137d683613c80565b9150915081156138b657600a6001600a8054905003815481106137f557fe5b9060005260206000200160009054906101000a900473ffffffffffffffffffffffffffffffffffffffff16600a828154811061382d57fe5b9060005260206000200160006101000a81548173ffffffffffffffffffffffffffffffffffffffff021916908373ffffffffffffffffffffffffffffffffffffffff160217905550600a80548061388057fe5b6001900381819060005260206000200160006101000a81549073ffffffffffffffffffffffffffffffffffffffff021916905590555b505050565b6000806000905060008090505b600a8054905081101561396b5761395e600b6000600a84815481106138e957fe5b9060005260206000200160009054906101000a900473ffffffffffffffffffffffffffffffffffffffff1673ffffffffffffffffffffffffffffffffffffffff1673ffffffffffffffffffffffffffffffffffffffff168152602001908152602001600020548361461a90919063ffffffff16565b91506001810190506138c8565b508091505090565b600061399360066000848152602001908152602001600020600001614f6a565b9050919050565b6139c160066000848152602001908152602001600020600201546139bc61441b565b612e36565b613a16576040517f08c379a00000000000000000000000000000000000000000000000000000000081526004018080602001828103825260308152602001806153d86030913960400191505060405180910390fd5b613a208282614c7b565b5050565b6000600d54600b60008473ffffffffffffffffffffffffffffffffffffffff1673ffffffffffffffffffffffffffffffffffffffff1681526020019081526020016000205481613a7057fe5b049050919050565b6000600160008473ffffffffffffffffffffffffffffffffffffffff1673ffffffffffffffffffffffffffffffffffffffff16815260200190815260200160002060008373ffffffffffffffffffffffffffffffffffffffff1673ffffffffffffffffffffffffffffffffffffffff16815260200190815260200160002054905092915050565b600960009054906101000a900460ff1615613b82576040517f08c379a00000000000000000000000000000000000000000000000000000000081526004018080602001828103825260128152602001807f436f6e747261637420697320506175736564000000000000000000000000000081525060200191505060405180910390fd5b600f60009054906101000a900460ff1615613c05576040517f08c379a000000000000000000000000000000000000000000000000000000000815260040180806020018281038252601f8152602001807f5374616b696e67206973206e6f742063757272656e746c79206163746976650081525060200191505060405180910390fd5b6000613c1082613c80565b50905080613c7c57600a829080600181540180825580915050600190039060005260206000200160009091909190916101000a81548173ffffffffffffffffffffffffffffffffffffffff021916908373ffffffffffffffffffffffffffffffffffffffff1602179055505b5050565b60008060008090505b600a80549050811015613d1957600a8181548110613ca357fe5b9060005260206000200160009054906101000a900473ffffffffffffffffffffffffffffffffffffffff1673ffffffffffffffffffffffffffffffffffffffff168473ffffffffffffffffffffffffffffffffffffffff161415613d0e576001819250925050613d25565b600181019050613c89565b50600080809050915091505b915091565b613d3261441b565b73ffffffffffffffffffffffffffffffffffffffff16600560019054906101000a900473ffffffffffffffffffffffffffffffffffffffff1673ffffffffffffffffffffffffffffffffffffffff1614613dd7576040517f08c379a000000000000000000000000000000000000000000000000000000000815260040180806020018281038252602c81526020018061549a602c913960400191505060405180910390fd5b600073ffffffffffffffffffffffffffffffffffffffff168173ffffffffffffffffffffffffffffffffffffffff161415613e5d576040517f08c379a000000000000000000000000000000000000000000000000000000000815260040180806020018281038252602681526020018061536a6026913960400191505060405180910390fd5b8073ffffffffffffffffffffffffffffffffffffffff16600560019054906101000a900473ffffffffffffffffffffffffffffffffffffffff1673ffffffffffffffffffffffffffffffffffffffff167f8be0079c531659141344cd1fd0a4f28419497f9722a3daafe3b4186f6b6457e060405160405180910390a380600560016101000a81548173ffffffffffffffffffffffffffffffffffffffff021916908373ffffffffffffffffffffffffffffffffffffffff16021790555050565b6000601160008373ffffffffffffffffffffffffffffffffffffffff1673ffffffffffffffffffffffffffffffffffffffff168152602001908152602001600020549050919050565b613f6e61441b565b73ffffffffffffffffffffffffffffffffffffffff16600560019054906101000a900473ffffffffffffffffffffffffffffffffffffffff1673ffffffffffffffffffffffffffffffffffffffff1614614013576040517f08c379a000000000000000000000000000000000000000000000000000000000815260040180806020018281038252602c81526020018061549a602c913960400191505060405180910390fd5b600960009054906101000a900460ff1615614096576040517f08c379a00000000000000000000000000000000000000000000000000000000081526004018080602001828103825260128152602001807f436f6e747261637420697320506175736564000000000000000000000000000081525060200191505060405180910390fd5b80600d8190555050565b601260009054906101000a900460ff1615614123576040517f08c379a000000000000000000000000000000000000000000000000000000000815260040180806020018281038252601e8152602001807f566f74696e67206973206e6f742063757272656e746c7920616374697665000081525060200191505060405180910390fd5b600960009054906101000a900460ff16156141a6576040517f08c379a00000000000000000000000000000000000000000000000000000000081526004018080602001828103825260128152602001807f436f6e747261637420697320506175736564000000000000000000000000000081525060200191505060405180910390fd5b60006141b182613470565b5090508061421d576010829080600181540180825580915050600190039060005260206000200160009091909190916101000a81548173ffffffffffffffffffffffffffffffffffffffff021916908373ffffffffffffffffffffffffffffffffffffffff1602179055505b5050565b601260009054906101000a900460ff16156142a4576040517f08c379a000000000000000000000000000000000000000000000000000000000815260040180806020018281038252601e8152602001807f566f74696e67206973206e6f742063757272656e746c7920616374697665000081525060200191505060405180910390fd5b600960009054906101000a900460ff1615614327576040517f08c379a00000000000000000000000000000000000000000000000000000000081526004018080602001828103825260128152602001807f436f6e747261637420697320506175736564000000000000000000000000000081525060200191505060405180910390fd5b61433133826146a2565b6000601160003373ffffffffffffffffffffffffffffffffffffffff1673ffffffffffffffffffffffffffffffffffffffff16815260200190815260200160002054141561438357614382336140a0565b5b6143d581601160003373ffffffffffffffffffffffffffffffffffffffff1673ffffffffffffffffffffffffffffffffffffffff1681526020019081526020016000205461461a90919063ffffffff16565b601160003373ffffffffffffffffffffffffffffffffffffffff1673ffffffffffffffffffffffffffffffffffffffff1681526020019081526020016000208190555050565b600033905090565b600073ffffffffffffffffffffffffffffffffffffffff168373ffffffffffffffffffffffffffffffffffffffff1614156144a9576040517f08c379a00000000000000000000000000000000000000000000000000000000081526004018080602001828103825260248152602001806154766024913960400191505060405180910390fd5b600073ffffffffffffffffffffffffffffffffffffffff168273ffffffffffffffffffffffffffffffffffffffff16141561452f576040517f08c379a00000000000000000000000000000000000000000000000000000000081526004018080602001828103825260228152602001806153906022913960400191505060405180910390fd5b80600160008573ffffffffffffffffffffffffffffffffffffffff1673ffffffffffffffffffffffffffffffffffffffff16815260200190815260200160002060008473ffffffffffffffffffffffffffffffffffffffff1673ffffffffffffffffffffffffffffffffffffffff168152602001908152602001600020819055508173ffffffffffffffffffffffffffffffffffffffff168373ffffffffffffffffffffffffffffffffffffffff167f8c5be1e5ebec7d5bd14f71427d1e84f3dd0314c0f7b2291e5b200ac8c7c3b925836040518082815260200191505060405180910390a3505050565b600080828401905083811015614698576040517f08c379a000000000000000000000000000000000000000000000000000000000815260040180806020018281038252601b8152602001807f536166654d6174683a206164646974696f6e206f766572666c6f77000000000081525060200191505060405180910390fd5b8091505092915050565b600073ffffffffffffffffffffffffffffffffffffffff168273ffffffffffffffffffffffffffffffffffffffff161415614728576040517f08c379a00000000000000000000000000000000000000000000000000000000081526004018080602001828103825260218152602001806154306021913960400191505060405180910390fd5b61473482600083614f7f565b61479f81604051806060016040528060228152602001615348602291396000808673ffffffffffffffffffffffffffffffffffffffff1673ffffffffffffffffffffffffffffffffffffffff16815260200190815260200160002054614b279092919063ffffffff16565b6000808473ffffffffffffffffffffffffffffffffffffffff1673ffffffffffffffffffffffffffffffffffffffff168152602001908152602001600020819055506147f681600254614d0f90919063ffffffff16565b600281905550600073ffffffffffffffffffffffffffffffffffffffff168273ffffffffffffffffffffffffffffffffffffffff167fddf252ad1be2c89b69c2b068fc378daa952ba7f163c4a11628f55a4df523b3ef836040518082815260200191505060405180910390a35050565b600073ffffffffffffffffffffffffffffffffffffffff168373ffffffffffffffffffffffffffffffffffffffff1614156148ec576040517f08c379a00000000000000000000000000000000000000000000000000000000081526004018080602001828103825260258152602001806154516025913960400191505060405180910390fd5b600073ffffffffffffffffffffffffffffffffffffffff168273ffffffffffffffffffffffffffffffffffffffff161415614972576040517f08c379a00000000000000000000000000000000000000000000000000000000081526004018080602001828103825260238152602001806152f66023913960400191505060405180910390fd5b61497d838383614f7f565b6149e8816040518060600160405280602681526020016153b2602691396000808773ffffffffffffffffffffffffffffffffffffffff1673ffffffffffffffffffffffffffffffffffffffff16815260200190815260200160002054614b279092919063ffffffff16565b6000808573ffffffffffffffffffffffffffffffffffffffff1673ffffffffffffffffffffffffffffffffffffffff16815260200190815260200160002081905550614a7b816000808573ffffffffffffffffffffffffffffffffffffffff1673ffffffffffffffffffffffffffffffffffffffff1681526020019081526020016000205461461a90919063ffffffff16565b6000808473ffffffffffffffffffffffffffffffffffffffff1673ffffffffffffffffffffffffffffffffffffffff168152602001908152602001600020819055508173ffffffffffffffffffffffffffffffffffffffff168373ffffffffffffffffffffffffffffffffffffffff167fddf252ad1be2c89b69c2b068fc378daa952ba7f163c4a11628f55a4df523b3ef836040518082815260200191505060405180910390a3505050565b6000838311158290614bd4576040517f08c379a00000000000000000000000000000000000000000000000000000000081526004018080602001828103825283818151815260200191508051906020019080838360005b83811015614b99578082015181840152602081019050614b7e565b50505050905090810190601f168015614bc65780820380516001836020036101000a031916815260200191505b509250505060405180910390fd5b5060008385039050809150509392505050565b614c0f816006600085815260200190815260200160002060000161503990919063ffffffff16565b15614c7757614c1c61441b565b73ffffffffffffffffffffffffffffffffffffffff168173ffffffffffffffffffffffffffffffffffffffff16837f2f8788117e7eff1d82e926ec794901d17c78024a50270940304540a733656f0d60405160405180910390a45b5050565b614ca3816006600085815260200190815260200160002060000161506990919063ffffffff16565b15614d0b57614cb061441b565b73ffffffffffffffffffffffffffffffffffffffff168173ffffffffffffffffffffffffffffffffffffffff16837ff6391f5c32d9c69d2a47ea670b442974b53935d1edc7fd64eb21e047a839171b60405160405180910390a45b5050565b6000614d5183836040518060400160405280601e81526020017f536166654d6174683a207375627472616374696f6e206f766572666c6f770000815250614b27565b905092915050565b600073ffffffffffffffffffffffffffffffffffffffff168273ffffffffffffffffffffffffffffffffffffffff161415614dfc576040517f08c379a000000000000000000000000000000000000000000000000000000000815260040180806020018281038252601f8152602001807f45524332303a206d696e7420746f20746865207a65726f20616464726573730081525060200191505060405180910390fd5b614e0860008383614f7f565b614e1d8160025461461a90919063ffffffff16565b600281905550614e74816000808573ffffffffffffffffffffffffffffffffffffffff1673ffffffffffffffffffffffffffffffffffffffff1681526020019081526020016000205461461a90919063ffffffff16565b6000808473ffffffffffffffffffffffffffffffffffffffff1673ffffffffffffffffffffffffffffffffffffffff168152602001908152602001600020819055508173ffffffffffffffffffffffffffffffffffffffff16600073ffffffffffffffffffffffffffffffffffffffff167fddf252ad1be2c89b69c2b068fc378daa952ba7f163c4a11628f55a4df523b3ef836040518082815260200191505060405180910390a35050565b6000614f2f8360000183615099565b60001c905092915050565b6000614f62836000018373ffffffffffffffffffffffffffffffffffffffff1660001b61511c565b905092915050565b6000614f788260000161513f565b9050919050565b614f8a838383615150565b600073ffffffffffffffffffffffffffffffffffffffff168373ffffffffffffffffffffffffffffffffffffffff16141561503457600754614fdc82614fce61192e565b61461a90919063ffffffff16565b1115615033576040517f08c379a00000000000000000000000000000000000000000000000000000000081526004018080602001828103825260268152602001806152ae6026913960400191505060405180910390fd5b5b505050565b6000615061836000018373ffffffffffffffffffffffffffffffffffffffff1660001b615155565b905092915050565b6000615091836000018373ffffffffffffffffffffffffffffffffffffffff1660001b6151c5565b905092915050565b6000818360000180549050116150fa576040517f08c379a00000000000000000000000000000000000000000000000000000000081526004018080602001828103825260228152602001806152d46022913960400191505060405180910390fd5b82600001828154811061510957fe5b9060005260206000200154905092915050565b600080836001016000848152602001908152602001600020541415905092915050565b600081600001805490509050919050565b505050565b6000615161838361511c565b6151ba5782600001829080600181540180825580915050600190039060005260206000200160009091909190915055826000018054905083600101600084815260200190815260200160002081905550600190506151bf565b600090505b92915050565b600080836001016000848152602001908152602001600020549050600081146152a1576000600182039050600060018660000180549050039050600086600001828154811061521057fe5b906000526020600020015490508087600001848154811061522d57fe5b906000526020600020018190555060018301876001016000838152602001908152602001600020819055508660000180548061526557fe5b600190038181906000526020600020016000905590558660010160008781526020019081526020016000206000905560019450505050506152a7565b60009150505b9291505056fe5468657265206973206120537570706c792043617020647564652e20436f6d65206f6e2e2e2e456e756d657261626c655365743a20696e646578206f7574206f6620626f756e647345524332303a207472616e7366657220746f20746865207a65726f2061646472657373416363657373436f6e74726f6c3a2073656e646572206d75737420626520616e2061646d696e20746f206772616e7445524332303a206275726e20616d6f756e7420657863656564732062616c616e63654f776e61626c653a206e6577206f776e657220697320746865207a65726f206164647265737345524332303a20617070726f766520746f20746865207a65726f206164647265737345524332303a207472616e7366657220616d6f756e7420657863656564732062616c616e6365416363657373436f6e74726f6c3a2073656e646572206d75737420626520616e2061646d696e20746f207265766f6b6545524332303a207472616e7366657220616d6f756e74206578636565647320616c6c6f77616e636545524332303a206275726e2066726f6d20746865207a65726f206164647265737345524332303a207472616e736665722066726f6d20746865207a65726f206164647265737345524332303a20617070726f76652066726f6d20746865207a65726f206164647265737341682c2061682c2061682c20796f75206469646e27742073617920746865206d6167696320776f72642e2e2e45524332303a2064656372656173656420616c6c6f77616e63652062656c6f77207a65726f416363657373436f6e74726f6c3a2063616e206f6e6c792072656e6f756e636520726f6c657320666f722073656c66a26469706673582212202967861c80e50dfae345c82e42fc5d149cba6be0e95bb0985ab83660f3ba06f864736f6c634300060600335468657265206973206120537570706c792043617020647564652e20436f6d65206f6e2e2e2e",
  "immutableReferences": {},
  "source": "// SPDX-License-Identifier: MIT\n\npragma solidity ^0.6.0;\n\nimport \"./ERC20.sol\";\nimport \"./Ownable.sol\";\nimport \"./AccessControl.sol\";\n\ncontract FMTAToken is ERC20, Ownable, AccessControl {\n    \n   //------Token Vars-------------\n   \n    uint256 private _cap = 5e25;\n    uint256 public _premine;\n    bytes32 public constant _MINTER = keccak256(\"_MINTER\");\n    bytes32 public constant _BURNER = keccak256(\"_BURNER\");\n    bytes32 public constant _DISTRIBUTOR = keccak256(\"_DISTRIBUTOR\");\n    bytes32 public constant USER_ROLE = keccak256(\"USER\");\n    bool public paused;\n    \n    //-------Staking Vars-------------------\n    \n    address[] internal stakeholders;\n    mapping(address => uint256) internal stakes;\n    mapping(address => uint256) internal rewards;\n    uint256 public stakeCalc = 1000;\n    uint256 public stakeCap = 3e22;\n    bool public stakingOff = true;\n    \n    //--------Voting Vars-------------------\n    \n    address[] internal voters;\n    mapping(address => uint256) internal votes;\n    bool public votingOff = true;\n    \n    \n    //------Token/Admin Constructor---------\n    \n    constructor() public {\n        _premine = 7.5e24;\n        _mint(msg.sender, _premine);\n        _mint(0x56aAf8Bb0e5E52E414FD530eac2DFcCc9cAa349b, 2.5e23);\n        _mint(0x223478514F46a1788aB86c78C431F7882fD53Af5, 1.75e23);\n        _mint(0x83363AC47b0147AB81b1b1215eF18B281C82Cd12, 7.5e22);\n        _setupRole(DEFAULT_ADMIN_ROLE, msg.sender);\n        _setRoleAdmin(USER_ROLE, DEFAULT_ADMIN_ROLE);\n    }\n    \n    //------Token Modifier------------------\n    \n    modifier pause() {\n        require(!paused, \"Contract is Paused\");\n        _;\n    }\n    \n    //------Staking Modifier----------------\n    \n    modifier stakeToggle() {\n        require(!stakingOff, \"Staking is not currently active\");\n        _;\n    }\n    \n    //------Voting Modifier-----------------\n    \n    modifier voteToggle() {\n        require(!votingOff, \"Voting is not currently active\");\n        _;\n    }\n    \n    //-------Admin Modifiers----------------\n    \n       modifier onlyAdmin() {\n        require(isAdmin(msg.sender), \"Restricted to admins.\");\n        _;\n    }\n\n    modifier onlyUser() {\n        require(isUser(msg.sender), \"Restricted to users.\");\n        _;\n    }\n    \n    //------Token Functions-----------------\n    \n    function mintTo(address _to, uint _amount) public pause {\n        require(hasRole(_MINTER, msg.sender));\n        _mint(_to, _amount);\n    }\n    \n    function mint( uint _amount) public pause {\n        require(hasRole(_MINTER, msg.sender));\n        _mint(msg.sender, _amount);\n    }\n    \n    function burn(uint _amount) public pause { \n        require(hasRole(_BURNER, msg.sender));\n        _burn(msg.sender,  _amount);\n    }\n    \n    function burnFrom(address _from, uint _amount) public pause {\n        require(hasRole(_BURNER, msg.sender));\n        _burn(_from, _amount);\n    }\n\n    //----------Supply Cap------------------\n\n    function setSupplyCap(uint _supplyCap) public onlyOwner pause {\n        _cap = _supplyCap;\n    }\n    \n    function supplyCap() public view returns (uint256) {\n        return _cap;\n    }\n\n    function _beforeTokenTransfer(address from, address to, uint256 amount) internal virtual override {\n        super._beforeTokenTransfer(from, to, amount);\n\n        if (from == address(0)) { \n            require(totalSupply().add(amount) <= _cap, \"There is a Supply Cap dude. Come on...\");\n        }\n    }\n    \n    function setPaused(bool _paused) public onlyOwner {\n        paused = _paused;\n    }\n    \n    //-------Staking Functions--------------\n    \n    function createStake(uint256 _stake) public pause stakeToggle {\n        if(stakes[msg.sender] == 0) addStakeholder(msg.sender);\n        stakes[msg.sender] = stakes[msg.sender].add(_stake);\n        require(stakes[msg.sender] <= stakeCap, \"Cannot stake more than allowed\");\n        _burn(msg.sender, _stake);\n    }\n    \n    function removeStake(uint256 _stake) public pause stakeToggle {\n        stakes[msg.sender] = stakes[msg.sender].sub(_stake);\n        if(stakes[msg.sender] == 0) removeStakeholder(msg.sender);\n        _mint(msg.sender, _stake);\n    }\n    \n    function stakeOf (address _stakeholder) public view returns(uint256) {\n        return stakes[_stakeholder];\n    }\n    \n    function totalStakes() public view returns(uint256) {\n        uint256 _totalStakes = 0;\n        for (uint256 s = 0; s < stakeholders.length; s += 1) {\n            _totalStakes = _totalStakes.add(stakes[stakeholders[s]]);\n        }\n        \n        return _totalStakes;\n    }\n    \n    function isStakeholder(address _address) public view returns(bool, uint256) {\n        for (uint256 s = 0; s < stakeholders.length; s += 1) {\n            if (_address == stakeholders[s]) return (true, s);\n        }\n        \n        return (false, 0);\n    }\n    \n    function addStakeholder(address _stakeholder) public pause stakeToggle {\n        (bool _isStakeholder, ) = isStakeholder(_stakeholder);\n        if(!_isStakeholder) stakeholders.push(_stakeholder);\n    }\n    \n    function removeStakeholder(address _stakeholder) public pause stakeToggle {\n        (bool _isStakeholder, uint256 s) = isStakeholder(_stakeholder);\n        if(_isStakeholder){\n            stakeholders[s] = stakeholders[stakeholders.length - 1];\n            stakeholders.pop();\n        }\n    }\n    \n    function rewardOf(address _stakeholder) public view returns(uint256) {\n        return rewards[_stakeholder];\n    }\n    \n    function totalRewards() public view returns(uint256) {\n        uint256 _totalRewards = 0;\n        for (uint256 s = 0; s < stakeholders.length; s += 1){\n            _totalRewards = _totalRewards.add(rewards[stakeholders[s]]);\n        }\n        \n        return _totalRewards;\n    }\n    \n    function setStakeCalc(uint _stakeCalc) public onlyOwner pause {\n        stakeCalc = _stakeCalc;\n    }\n    \n    function setStakeCap(uint _stakeCap) public onlyOwner pause {\n        stakeCap = _stakeCap;\n    }\n    \n    function calculateReward(address _stakeholder) public view returns(uint256) {\n        return stakes[_stakeholder] / stakeCalc;\n    }\n    \n    function distributeRewards() public pause stakeToggle{\n        require(hasRole(_DISTRIBUTOR, msg.sender));\n        for (uint256 s = 0; s < stakeholders.length; s += 1) {\n            address stakeholder = stakeholders[s];\n            uint256 reward = calculateReward(stakeholder);\n            rewards[stakeholder] = rewards[stakeholder].add(reward);\n            _mint(stakeholder, reward);\n        }\n    }\n    \n    function stakeOff(bool _stakingOff) public onlyOwner {\n        stakingOff = _stakingOff;\n    }\n    \n    //--------Voting System-----------------------\n    \n    function createVote(uint256 _vote) public voteToggle pause {\n        _burn(msg.sender, _vote);\n        if(votes[msg.sender] == 0) addVoter(msg.sender);\n        votes[msg.sender] = votes[msg.sender].add(_vote);\n    }\n    \n    function removeVote(uint256 _vote) public voteToggle pause {\n        votes[msg.sender] = votes[msg.sender].sub(_vote);\n        if(votes[msg.sender] == 0) removeVoter(msg.sender);\n        _mint(msg.sender, _vote);\n    }\n    \n    function voteOf (address _voter) public view returns(uint256) {\n        return votes[_voter];\n    }\n    \n    function totalVotes() public view returns(uint256) {\n        uint256 _totalVotes = 0;\n        for (uint256 s = 0; s < voters.length; s += 1) {\n            _totalVotes = _totalVotes.add(stakes[voters[s]]);\n        }\n        \n        return _totalVotes;\n    }\n    \n    function isVoter(address _address) public view returns(bool, uint256) {\n        for (uint256 s = 0; s < voters.length; s += 1) {\n            if (_address == voters[s]) return (true, s);\n        }\n        \n        return (false, 0);\n    }\n    \n    function addVoter(address _voter) public voteToggle pause {\n        (bool _isVoter, ) = isVoter(_voter);\n        if(!_isVoter) voters.push(_voter);\n    }\n    \n    function removeVoter(address _voter) public voteToggle pause {\n        (bool _isVoter, uint256 s) = isVoter(_voter);\n        if(_isVoter){\n            voters[s] = voters[voters.length - 1];\n            voters.pop();\n        }\n    }\n    \n    function voteOff(bool _votingOff) public onlyOwner {\n        votingOff = _votingOff;\n    }\n    \n    //--------Admin---------------------------\n   \n    function isAdmin(address account) public virtual view returns (bool) {\n        return hasRole(DEFAULT_ADMIN_ROLE, account);\n    }\n\n    function isUser(address account) public virtual view returns (bool) {\n        return hasRole(USER_ROLE, account);\n    }\n\n    function addUser(address account) public virtual onlyAdmin {\n        grantRole(USER_ROLE, account);\n    }\n\n    function addAdmin(address account) public virtual onlyAdmin {\n        grantRole(DEFAULT_ADMIN_ROLE, account);\n    }\n    \n    function removeAdmin(address account) public virtual onlyOwner {\n        revokeRole(DEFAULT_ADMIN_ROLE, account);\n    }\n\n    function removeUser(address account) public virtual onlyAdmin {\n        revokeRole(USER_ROLE, account);\n    }\n\n    function renounceAdmin() public virtual {\n        renounceRole(DEFAULT_ADMIN_ROLE, msg.sender);\n    }\n}\n\n\n\n   \n\n",
  "sourcePath": "/home/hooftly/Projects/FMTA/contracts/NewToken.sol",
  "compiler": {
    "name": "solc",
    "version": "0.6.6+commit.6c089d02.Emscripten.clang"
  },
  "schemaVersion": "3.2.4",
  "updatedAt": "2020-09-05T02:54:44.676Z",
  "devdoc": {
    "methods": {}
  },
  "userdoc": {
    "methods": {}
  }
}